:060000000A128A11122809
:10000800FE00030EF2000408F3000A08F40083124D
:1000180003137F08F5000A128A115A290A128A1155
:100028001528F601F701F801F9018313333084002C
:1000380045300A128A11F5210A128A115530FD003D
:100048000130FE00CE30FF00453084000A128A11CC
:10005800C12183010A128A11C02883120313AA013D
:10006800A31F4328A009A109A209A309A00A0319EB
:10007800A10A0319A20A0319A30AAA01AA0AA71F17
:100088005428A409A509A609A709A40A0319A50AB9
:100098000319A60A0319A70A0130A8002808AA0606
:1000A8000030AE000030AD000030AC000030AB00D6
:1000B80023082204210420040319A928A901A90A54
:1000C800A31B74280130A8000310A00DA10DA20DD8
:1000D800A30DA80B68280130A8002808A9076428E0
:1000E8000130A8000310AB0DAC0DAD0DAE0DA80B83
:1000F800762823082702031D8B2822082602031DC1
:100108008B2821082502031D8B2820082402031CA4
:100118009C282008A4022108031C210FA5022208FC
:10012800031C220FA6022308031C230FA7022B146B
:1001380001300310A30CA20CA10CA00CFF3E031D60
:100148009D280130A902031D74282A080319B7281D
:10015800AB09AC09AD09AE09AB0A0319AC0A03191E
:10016800AD0A0319AE0A2E08A3002D08A2002C0818
:10017800A1002B08A000080083160313860188013C
:10018800890183120313860189010A128A11DE216B
:100198000A128A11803083120313AF002530B00091
:1001A800B1010A128A11F6200A128A110A128A115A
:1001B8008A210A128A118312031343080319DF28BC
:1001C80044080A128A11EA210A128A11013083129C
:1001D8000313B2003208C40744083C3A0319C401A7
:1001E800C301DF288316031307138717831203132A
:1001F800310883160313031D1815031918119816CF
:100208001813181283120313981718131816981135
:100218002F08A0003008A100A201A3010030A70008
:100228000330A600D030A5009030A4000A128A112D
:100238003120831203132008FF3E8316031399000D
:100248008B170B178C16080083120313A301A40144
:100258002108803AA2002408803A2202031D362988
:1002680023082002031C080083120313A501A6011A
:100278002108803AA2002608803A2202031D462956
:1002880025082002031C5129013083120313A507F6
:100298000318A60A0030A6073C290130831203136D
:1002A800A3070318A40A0030A4072C290C1C6C29E6
:1002B800CF308F002C308E007608083A031D67294E
:1002C800F601C301C30A0130F1007108F6070C10EA
:1002D8008C1E75290A128A11FD210A128A11F7014A
:1002E800F70A831203130C1E7E29790899008316D6
:1002F80003130C1275088312FF0074088A00730830
:100308008400720E8300FE0E7E0E0900831603130E
:1003180088018312031388010630831603139F0094
:1003280038300A128A11AB210A128A110C300A12CB
:100338008A11AB210A128A1101300A128A11AB21E3
:100348000A128A1180300A128A11AB21080083121E
:100358000313A70027088800091089140A30A00091
:100368000030A1000A128A11282183120313891070
:1003780008007E088A007F088200BD210A128A11BF
:100388008000840A04087D0603190034FF0A031953
:10039800FE0AC129303400340034003400340034FB
:1003A80000340034003400340034003400340034A5
:1003B800003400343130831203139000CF308F00A3
:1003C8002C308E00831603130C14080083120313B9
:1003D800A1002108A0002008F900831603130C16B9
:1003E800080064008001840A040603190034040626
:1003F800F629831203131A08F0007008F8000800A1
:00000001FF
