:060000000A128A11122809
:10000800FE00030EF2000408F3000A08F40083124D
:1000180003137F08F5000A128A11B3280A128A11FD
:100028001528F601F701F801F9018313203084003F
:1000380045300A128A11D52183010A128A11F02843
:1000480083120313CF01C81F3628C509C609C7097B
:10005800C809C50A0319C60A0319C70A0319C80A31
:10006800CF01CF0ACC1F4728C909CA09CB09CC0937
:10007800C90A0319CA0A0319CB0A0319CC0A0130A1
:10008800CD004D08CF060030D3000030D20000303C
:10009800D1000030D000480847044604450403193D
:1000A8009C28CE01CE0AC81B67280130CD0003105A
:1000B800C50DC60DC70DC80DCD0B5B280130CD0091
:1000C8004D08CE0757280130CD000310D00DD10DB3
:1000D800D20DD30DCD0B692848084C02031D7E288C
:1000E80047084B02031D7E2846084A02031D7E2846
:1000F80045084902031C8F284508C9024608031C05
:10010800460FCA024708031C470FCB024808031CC6
:10011800480FCC02501401300310C80CC70CC60C91
:10012800C50CFF3E031D90280130CE02031D672831
:100138004F080319AA28D009D109D209D309D00A2E
:100148000319D10A0319D20A0319D30A5308C8009C
:100158005208C7005108C6005008C50008000C1C0A
:10016800C528CF308F002C308E007608083A031D42
:10017800C028F601C301C30A0130F1007108F6076F
:100188000C108C1ECE280A128A11DD210A128A113F
:10019800F701F70A0130831203130C1E0039831686
:1001A80003130C1E003900380319E42883120313C3
:1001B8000C12831603130C12790883120313990087
:1001C80075088312FF0074088A0073088400720E91
:1001D8008300FE0E7E0E0900831603138601880134
:1001E800890183120313860189010A128A11BE212B
:1001F8000A128A11803083120313D4002530D500E7
:10020800D6010A128A1127210A128A110A128A11A2
:100218008B210A128A1183120313430803190F2929
:10022800C30144080A128A11CA210A128A1101302C
:1002380083120313D7005708C40744083C3A031D28
:100248000F29C4010F298316031307138717831275
:100258000313560883160313031D181503191811E1
:1002680098161813181283120313981718131816D0
:1002780098115408C5005508C600C701C8010030C8
:10028800CC000330CB00D030CA009030C9000A122D
:100298008A112420831203134508FF3E8316031393
:1002A80099008B170B178C16080083120313C801CB
:1002B800C9014608803AC7004908803A4702031D29
:1002C800672948084502031C080083120313CA0162
:1002D800CB014608803AC7004B08803A4702031D05
:1002E80077294A084502031C822901308312031327
:1002F800CA070318CB0A0030CB076D2901308312D7
:100308000313C8070318C90A0030C9075D298316F3
:10031800031388018312031388010630831603131D
:100328009F0038300A128A11AC210A128A110C3047
:100338000A128A11AC210A128A1101300A128A1192
:10034800AC210A128A1180300A128A11AC210800E5
:1003580083120313CC004C088800091089140A3052
:10036800C5000030C6000A128A11592183120313EE
:10037800891008003130831203139000CF308F00AA
:100388002C308E00831603130C14080083120313F9
:10039800C6004608C5004508F900831603130C1665
:1003A800080064008001840A040603190034040666
:1003B800D629831203131A08F0007008F800080001
:00000001FF
