:060000000A128A11122809
:10000800FE00030EF1000408F2000A08F300831250
:1000180003137F08F4000A128A1188290A128A1128
:100028001528F701F80183132030840041300A12A3
:100038008A11DB2183010A128A11B1288312031362
:10004800CA01C41F3428C109C209C309C409C10AA5
:100058000319C20A0319C30A0319C40ACA01CA0A3E
:10006800C81F4528C509C609C709C809C50A03190B
:10007800C60A0319C70A0319C80A0130F50075082A
:10008800CA060030CE000030CD000030CC00003071
:10009800CB00440843044204410403199A28C901C7
:1000A800C90AC41B65280130F5000310C10DC20D33
:1000B800C30DC40DF50B59280130F5007508C907A3
:1000C80055280130F5000310CB0DCC0DCD0DCE0D0C
:1000D800F50B672844084802031D7C28430847029B
:1000E800031D7C2842084602031D7C28410845025E
:1000F800031C8D284108C5024208031C420FC60292
:100108004308031C430FC7024408031C440FC802DA
:100118004B1401300310C40CC30CC20CC10CFF3EBD
:10012800031D8E280130C902031D65284A080319DA
:10013800A828CB09CC09CD09CE09CB0A0319CC0ACA
:100148000319CD0A0319CE0A4E08C4004D08C3008E
:100158004C08C2004B08C10008008316031386012F
:100168008801890183120313860189018030CF0039
:100178002530D000D1010A128A1100210A128A11F1
:100188000A128A11A6210A128A118312031340083F
:100198000A128A11CF210A128A110130831203131D
:1001A800D2005208C0076430F5000030F6000A1289
:1001B8008A1164210A128A11FF30831203138800FE
:1001C8006430F5000030F6000A128A1164210A1220
:1001D8008A116430F5000030F6000A128A11642191
:1001E8000A128A116430F5000030F6000A128A11EA
:1001F80064210A128A11C928831603130713871763
:1002080083120313510883160313031D18150319CA
:100218001811981618131812831203139817181325
:10022800181698114F08C1005008C200C301C40134
:100238000030C8000330C700D030C6009030C50079
:100248000A128A112220831203134108FF3E8316E3
:10025800031399008B170B178C16080083120313CE
:10026800C201C3017608803AC1004308803A4102BE
:10027800031D402942087502031C0800831203135A
:10028800C401C5017608803AC1004508803A410298
:10029800031D502944087502031C5B290130831291
:1002A8000313C4070318C50A0030C50746290130DF
:1002B80083120313C2070318C30A0030C307362981
:1002C80083120313C101C20176084202031D6E297D
:1002D8007508410203180800C301C40176084402E6
:1002E800031D782975084302031881290130C307C3
:1002F8000318C40A0030C40772290130C107031863
:10030800C20A0030C20768298C1E91290A128A1174
:10031800E3210A128A11F701F70A831203130C1E4C
:100328009A2978089900831603130C12740883120B
:10033800FF0073088A0072088400710E8300FE0EA5
:100348007E0E0900831203138801831603138801A4
:1003580038300A128A11BD210A128A1106300A128F
:100368008A11BD210A128A110C300A128A11BD2184
:10037800080083120313C600460888000910891470
:100388000A30F5000030F6000A128A113221831271
:10039800031389100800F6007608F5007508F800C0
:1003A800831603130C1683120313880108006400D4
:1003B8008001840A0406031900340406DC29831228
:0C03C80003131A08F0007008A0000800E1
:00000001FF
