:060000000A128A11122809
:10000800FE00030EF2000408F3000A08F40083124D
:1000180003137F08F5000A128A11B4280A128A11FC
:100028001528F601F701F801F901FA0183132030C8
:10003800840045300A128A11D62183010A128A11D6
:10004800F12883120313CF01C81F3728C509C60931
:10005800C709C809C50A0319C60A0319C70A031933
:10006800C80ACF01CF0ACC1F4828C909CA09CB0939
:10007800CC09C90A0319CA0A0319CB0A0319CC0AFD
:100088000130CD004D08CF060030D3000030D2003B
:100098000030D1000030D000480847044604450429
:1000A80003199D28CE01CE0AC81B68280130CD004F
:1000B8000310C50DC60DC70DC80DCD0B5C2801304A
:1000C800CD004D08CE0758280130CD000310D00DC3
:1000D800D10DD20DD30DCD0B6A2848084C02031D53
:1000E8007F2847084B02031D7F2846084A02031D44
:1000F8007F2845084902031C90284508C90246087C
:10010800031C460FCA024708031C470FCB024808C6
:10011800031C480FCC02501401300310C80CC70C44
:10012800C60CC50CFF3E031D91280130CE02031DED
:1001380068284F080319AB28D009D109D209D30977
:10014800D00A0319D10A0319D20A0319D30A53088A
:10015800C8005208C7005108C6005008C50008006A
:100168000C1CC628CF308F002C308E007608083A39
:10017800031DC128F601C301C30A0130F10071084B
:10018800F6070C108C1ECF280A128A11DE210A12DB
:100198008A11F801F80A0130831203130C1E003982
:1001A800831603130C1E003900380319E52883123F
:1001B80003130C12831603130C127A088312031309
:1001C800990075088312FF0074088A007308840078
:1001D800720E8300FE0E7E0E09008316031386013D
:1001E8008801890183120313860189010A128A1181
:1001F800BF210A128A11803083120313D4002530DC
:10020800D500D6010A128A1128210A128A110A1267
:100218008A118C210A128A118312031343080319C5
:100228001029C30144080A128A11CB210A128A1123
:10023800013083120313D7005708C40744083C3A17
:10024800031D1029C40110298316031307138717E8
:1002580083120313560883160313031D1815031975
:1002680018119816181318128312031398171813D5
:10027800181698115408C5005508C600C701C801CA
:100288000030CC000330CB00D030CA009030C90019
:100298000A128A112520831203134508FF3E83168C
:1002A800031399008B170B178C160800831203137E
:1002B800C801C9014608803AC7004908803A470280
:1002C800031D682948084502031C0800831203130C
:1002D800CA01CB014608803AC7004B08803A47025A
:1002E800031D78294A084502031C8329013083121B
:1002F8000313CA070318CB0A0030CB076E29013055
:1003080083120313C8070318C90A0030C9075E29F6
:10031800831603138801831203138801063083169A
:1003280003139F0038300A128A11AD210A128A116C
:100338000C300A128A11AD210A128A1101300A12F0
:100348008A11AD210A128A1180300A128A11AD2150
:10035800080083120313CC004C0888000910891484
:100368000A30C5000030C6000A128A115A218312C9
:100378000313891008003130831203139000C93029
:100388008F00DD308E00831603130C1408008312CF
:100398000313C6004608C5004508FA008316031370
:1003A8000C16080064008001840A0406031900344E
:1003B8000406D729831203131A08F0007008F900FD
:0203C80008002B
:00000001FF
