:060000000A128A11122809
:10000800FE00030EF8000408F9000A08FA0083123B
:1000180003137F08FB000A128A11F62C0A128A11B0
:100028001528F001F101F201F301F401F501831340
:10003800543084006D300A128A11B8250A128A11C8
:10004800A0308400C0300A128A11B82583010A1230
:100058008A112E288316031388018901FF30860030
:1000680085018312031388018B15B030831603139F
:100078008100683083120313C7004708ED00EE01C2
:10008800EF010A128A1148250A128A110A128A11E6
:10009800A7250A128A116D300A128A11AA230A1298
:1000A8008A1183160313C001C1015A308312031346
:1000B800C7004708D800831603134108803AFF0099
:1000C80080307F02031D6A280730400203189328F6
:1000D800831203135808C7004708A0006D300A129E
:1000E8008A1155230A128A11013083160313C00797
:1000F8000318C10A0030C107013083120313C70077
:100108004708D807831603134108803AFF00803058
:100118007F02031D912807304002031C6C286330BE
:1001280083120313C7004708A0005C080A128A114B
:1001380069250A128A11653083120313C70047081C
:10014800A0005B080A128A1169250A128A1169300F
:1001580083120313C7004708A0005A080A128A111D
:1001680069250A128A110B3083120313C700470846
:10017800AE006408C800C9014808AF004908B000CB
:100188006308CA00CB014A08B1004B08B2006608F0
:10019800CC00CD014C08B3004D08B4006508CE0072
:1001A800CF014E08B5004F08B6006A08D000D1014B
:1001B8005008B7005108B8006908D200D3015208A6
:1001C800B9005308BA00A0300A128A11F1210A12A4
:1001D8008A1180300A128A1195250A128A11103064
:1001E80083120313C7004708A800A0300A128A1117
:1001F80021250A128A11613083120313C7004708A8
:10020800A0005E080A128A1169250A128A1167304D
:1002180083120313C7004708A0005F080A128A1157
:1002280069250A128A116B3083120313C700470825
:10023800A00060080A128A1169250A128A11223060
:1002480083120313C7004708AE006208C800C9013B
:100258004808AF004908B0006108CA00CB014A0845
:10026800B1004B08B2006808CC00CD014C08B300BF
:100278004D08B4006708CE00CF014E08B5004F08FE
:10028800B6006C08D000D1015008B7005108B8007A
:100298006B08D200D3015208B9005308BA00B03035
:1002A8000A128A11F1210A128A11C0300A128A111F
:1002B80095250A128A11103083120313C7004708C4
:1002C800A800B0300A128A1121250A128A11643056
:1002D80083120313A0000030A1000A128A116A24B5
:1002E8000A128A1187296B300A128A11CB240A1242
:1002F8008A1184296B300A128A119C240A128A11E5
:1003080083120313D60183120313D4080319EE29A9
:10031800103083120313C7004708A800A0300A1240
:100328008A1121250A128A11393083120313C70052
:100338004708AE006208C800C9014808AF0049086C
:10034800B0006108CA00CB014A08B1004B08B200EE
:100358006808CC00CD014C08B3004D08B40067080C
:10036800CE00CF014E08B5004F08B6006C08D0008B
:10037800D1015008B7005108B8006B08D200D3016A
:100388005208B9005308BA00B0300A128A11F12194
:100398000A128A11C0300A128A1195250A128A1186
:1003A800103083120313C7004708A800B0300A12A0
:1003B8008A1121250A128A11831203135608023A58
:1003C80003197729063A03197E290C3A0319862955
:1003D80087298729013085004F2883120313C50018
:1003E8002F30BB003B08BE000130AE07FF302E07A0
:1003F80084000A128A1100230A128A11BB003B08E2
:10040800C600C6080319C72A4608253A0319182A38
:100418004608BB00450884003B0883138000013070
:10042800BB003B08C507F829BF010130AE07FF3004
:100438002E0784000A128A1100230A128A11C600A4
:10044800003A0319C72A643A03192E2A0D3A0319E8
:100458002E2AF8293E08840083130008C100840A64
:100468000008C2000230BB003B08BE07C21F452A75
:100478000330BB003B08BF04C109C209C10A031904
:10048800C20AC601C60A4608053A03196C2A460874
:10049800BB003B07013E84000A128A1100230A129E
:1004A8008A11BC000A128A1100230A128A11BD009F
:1004B8003D084202031D622A3C084102031C6C2AC3
:1004C8000130BB003B08C6074608053A031D4B2A06
:1004D8003F08033903197B2A2D30BB0045088400E7
:1004E8003B08831380000130BB003B08C507460862
:1004F800BB003B08C000FF30BB003B08C0074008FA
:10050800FF3A0319F8290A30A8000030A90040086A
:10051800BB003B07013E84000A128A1100230A121D
:100528008A11A0000A128A1100230A128A11A10056
:100538004208A301A3074108A201A2070A128A11CF
:10054800F4230A128A11831203132108AB01AB07A3
:100558002008AA01AA070A128A1134240A128A1149
:10056800831203132808303EBC003C08C600460826
:10057800BB00450884003B08831380000130BB00A2
:100588003B08C5077F2A45088400831380010800BB
:1006000003308A000408840A82070034013400346D
:100610000A34003464340034E834033410342734AA
:10062000543469346D3465343A34203425346434B8
:10063000253464342D3425346434253464342D3425
:100640002534643425346434203420340034443474
:100650006134743465343A342034253464342534B8
:1006600064342D3425346434253464342D342534F5
:100670006434253464342034203400344434613408
:10068000743465343A342034253464342534643485
:100690002D3425346434253464342D3425346434C5
:1006A000253464343C342D34003483120313A20007
:1006B0008B1183160313111483122208023E840047
:1006C0008313800803195C2B2208023E84008001FA
:1006D000031422088400000D93002208023E8400C7
:1006E000800803196D2B2208023E840080018316C6
:1006F0000313911583122208023E84008008031917
:100700007A2B2208023E840080011308A1002008F1
:10071000840021088000831603139116111683129A
:100720002208023E8400800803198F2B2208023E13
:100730008400800183160313111583122208023EE0
:100740008400800803199D2B2208023E840080014A
:100750008B15080083120313A1008B11831603135A
:10076000111483120313210A8400831380080319D0
:10077000BC2B210A840080012108023E84008008ED
:100780000319BC2B2108023E84008001210884004B
:100790000008A000200793002108023E8400800882
:1007A0000319CC2B2108023E84008001210A840019
:1007B000000893002108023E840080080319DA2B08
:1007C0002108023E84008001831603131115831251
:1007D0002108023E840080080319E72B2108023E0D
:1007E000840080018B15080083120313A601A70162
:1007F0002108200403192D2CA501A50AA11B0C2CEE
:1008000001300310A00DA10DFF3E031D012C01308E
:10081000A4002408A507FE2B01300310A60DA70D88
:10082000FF3E031D0D2C21082302031D192C200857
:100830002202031C222C2008A2022108031CA3036D
:10084000A302261401300310A10CA00CFF3E031DCF
:10085000232C0130A502031D0C2C2708A101A107A0
:100860002608A001A0070800831203132908280402
:100870000319632CAD01AD0AA91B4A2C01300310EA
:10088000A80DA90DFF3E031D3F2C0130AC002C0824
:10089000AD073C2C29082B02031D502C28082A02E6
:1008A000031C582C2808AA022908031CAB03AB021E
:1008B00001300310A90CA80CFF3E031D592C013078
:1008C000AD02031D4A2C2B08A901A9072A08A8017B
:1008D000A807080083120313A301A4012108803A8A
:1008E000A2002408803A2202031D782C230820024B
:1008F000031C080083120313A501A6012108803AF6
:10090000A2002608803A2202031D882C2508200216
:10091000031C932C013083120313A5070318A60AA6
:100920000030A6077E2C013083120313A30703189F
:10093000A40A0030A4076E2C83120313A10021081F
:10094000840083138008031DC12C0930A0002108F6
:10095000840020088000210A84008008031DB72C31
:100960000930A000210A8400200880000800210826
:1009700084000008FF3EA000210A840020088000B7
:100980000800210884000008FF3EA0002108840020
:1009900020088000080083120313A10021088400AE
:1009A00083130008093A031DEC2C21088400800100
:1009B000210A84000008093A031DE22C210A840060
:1009C00080010800210A84000008013EA000210ADD
:1009D0008400200880000800210884000008013EEF
:1009E000A000210884002008800008008C1DFB2C3A
:1009F000EF01EF0A8C110B1C162D02308500060941
:100A0000F60004300310F60CFF3E031D022D76089D
:100A10000F39F7007708D600061A152DD4080030D4
:100A200003190130F6007608D4000B107B08FF0094
:100A30007A088A0079088400780E8300FE0E7E0E04
:100A4000090083120313AA00AB01AC012C08803A01
:100A5000A90080302902031D2F2D28082B0203181E
:100A60000800831203132B082A07A9002908840011
:100A7000831300080A128A1183250A128A11013091
:100A800083120313AB070318AC0A0030AC07262D02
:100A9000831603138801831203138801063083161B
:100AA00003139F0038300A128A1195250A128A1101
:100AB0000C300A128A1195250A128A1101300A1285
:100AC0008A1195250A128A1180300A128A119525F9
:100AD000080083120313A30023080F39A100200884
:100AE00084002108831380002308A1000430031030
:100AF000A10CFF3E031D772D2108A200200A8400CF
:100B000022088000080083120313A700270888002A
:100B1000091489140A30A0000030A1000A128A11B9
:100B20006A24831203138910080083120313A70099
:100B300027088800091089140A30A0000030A1009D
:100B40000A128A116A24831203138910080083167B
:100B50000313871507162830930094172830831243
:100B6000031394008B170B17831603138C150800BF
:100B700064008001840A0406031900340406B92DB8
:02400E0030D0B0
:00000001FF
