:060000000A128A11122809
:10000800FE00030EF8000408F9000A08FA0083123B
:1000180003137F08FB000A128A11832D0A128A1122
:100028001528F001F101F201F301F401F501831340
:100038005630840069300A128A11E1270A128A119F
:10004800A0308400C7300A128A11E1270A128A11E7
:10005800DC30FD000730FE005E30FF00C730840052
:100068000A128A11C32783010A128A113B288316B0
:10007800031388018901FF30860085018312031369
:1000880088018B15B0308316031381006830831202
:100098000313C7004708E900EA01EB010A128A11B5
:1000A8000D270A128A110A128A11D0270A128A11F8
:1000B80069300A128A11C4240A128A11831203139E
:1000C800D501C030C7004708DB00073055020318C8
:1000D80085285B08C7004708A00069300A128A1102
:1000E80020240A128A11013083120313C70047081B
:1000F800D5070130C7004708DB0707305502031C46
:100108006D285F30C7004708A00083160313420814
:100118000A128A112E270A128A11613083120313D8
:10012800C7004708A0008316031341080A128A1162
:100138002E270A128A11653083120313C700470855
:10014800A0008316031340080A128A112E270A12E8
:100158008A1183160313430883120313C700470841
:10016800F5000B30C7004708AE006008C800C90199
:100178004808AF004908B0005F08CA00CB014A0828
:10018800B1004B08B2006208CC00CD014C08B300A6
:100198004D08B4006108CE00CF014E08B5004F08E5
:1001A800B6006608D000D1015008B7005108B80061
:1001B8006508D200D3015208B9005308BA00A0302C
:1001C8000A128A1163220A128A1180300A128A11CD
:1001D800AD270A128A11103083120313C70047088B
:1001E800A800A0300A128A11E6260A128A115D3088
:1001F80083120313C7004708A0008316031344089B
:100208000A128A112E270A128A11633083120313E5
:10021800C7004708A0008316031345080A128A116D
:100228002E270A128A11673083120313C700470862
:10023800A0008316031346080A128A112E270A12F1
:100248008A11223083120313C7004708AE005E08E4
:10025800C800C9014808AF004908B0005D08CA00D5
:10026800CB014A08B1004B08B2006408CC00CD01AC
:100278004C08B3004D08B4006308CE00CF014E0807
:10028800B5004F08B6006808D000D1015008B70083
:100298005108B8006708D200D3015208B9005308C2
:1002A800BA00B0300A128A1163220A128A11C030C9
:1002B8000A128A11AD270A128A1110308312031309
:1002C800C7004708A800B0300A128A11E6260A12A9
:1002D8008A11643083120313A0000030A1000A12AF
:1002E8008A112D260A128A11B22983120313580380
:1002F800FF3A073EC7004708AE005803FF3A073EDB
:10030800D53E8400831300080A128A11BA260A12FD
:100318008A11A0295803FF3A073EC7004708AE00D4
:100328005803FF3A073ED53E8400831300080A129B
:100338008A115F260A128A1183120313D901B2297E
:1003480069300A128A113E230A128A118312031392
:10035800C7004708D400D701D901D8018312031375
:10036800D7080319602A80300A128A11AD270A12A9
:100378008A11103083120313C7004708A800A03061
:100388000A128A11E6260A128A11223083120313EE
:10039800C7004708AE005E08C800C9014808AF009A
:1003A8004908B0005D08CA00CB014A08B1004B08F3
:1003B800B2006408CC00CD014C08B3004D08B4006D
:1003C8006308CE00CF014E08B5004F08B600680894
:1003D800D000D1015008B7005108B8006708D20012
:1003E800D3015208B9005308BA00B0300A128A1172
:1003F80063220A128A11C0300A128A11AD270A1222
:100408008A11103083120313C7004708A800B030C0
:100418000A128A11E6260A128A113230831203134D
:10042800A0000030A1000A128A112D260A128A1192
:10043800831203135808C7004708A4000330C800F4
:100448004808A0005808FF3E0A128A1188270A1295
:100458008A11FF3A013EBC3E0A128A1173270A121A
:100468008A11C0300A128A11AD270A128A11103077
:1004780083120313C7004708A800B0300A128A1174
:10048800E6260A128A11323083120313A0000030C4
:10049800A1000A128A112D260A128A118312031347
:1004A8005908023A03198E29063A031979290C3A90
:1004B8000319A429B229B229013085005C288312C6
:1004C8000313C5002F30BB003B08BE000130AE0748
:1004D800FF302E0784000A128A1145250A128A1154
:1004E800BB003B08C600C6080319392B4608253A45
:1004F80003198A2A4608BB00450884003B08831371
:1005080080000130BB003B08C5076A2ABF010130E3
:10051800AE07FF302E0784000A128A1145250A12F9
:100528008A11C600003A0319392B643A0319A02A24
:100538000D3A0319A02A6A2A3E088400831300088A
:10054800C100840A0008C2000230BB003B08BE0795
:10055800C21FB72A0330BB003B08BF04C109C20948
:10056800C10A0319C20AC601C60A4608053A031990
:10057800DE2A4608BB003B07013E84000A128A11A6
:1005880045250A128A11BC000A128A1145250A1249
:100598008A11BD003D084202031DD42A3C084102CD
:1005A800031CDE2A0130BB003B08C6074608053A93
:1005B800031DBD2A3F0803390319ED2A2D30BB005E
:1005C800450884003B08831380000130BB003B08CA
:1005D800C5074608BB003B08C000FF30BB003B080E
:1005E800C0074008FF3A03196A2A0A30A8000030F9
:1005F800A9004008BB003B07013E84000A128A118B
:1006080045250A128A11A0000A128A1145250A12E4
:100618008A11A1004208A301A3074108A201A20769
:100628000A128A1105250A128A1183120313210856
:10063800AB01AB072008AA01AA070A128A11F725FD
:100648000A128A11831203132808303EBC003C08A2
:10065800C6004608BB00450884003B088313800099
:100668000130BB003B08C507F12A45088400831305
:100678008001080083120313A6008B11831603134D
:10068800111483122608023E84008313800803197C
:10069800452B2608023E84008001260884000008B5
:1006A800A300230793002608023E8400800803194C
:1006B800572B2608023E8400800193012608023E3B
:1006C800840080080319622B2608023E84008001FA
:1006D800A401A5012508803AFF0080307F02031D90
:1006E800772B073024020318B12B0330831203132E
:1006F80024062504031D882B2408D53E8400831373
:10070800000884000008942B2408D53E8400831335
:1007180000080A128A1148270A128A118312031341
:1007280093002608023E8400831380080319952B42
:100738002608023E840080010130A4070318A50A98
:100748000030A5072508803AFF0080307F02031D8E
:10075800AF2B07302402031C792B831603131115C2
:1007680083122608023E8400831380080319B42BE1
:100778002608023E840080018B1500300800831291
:100788000313A601A11FCF2BA009A109A00A0319D1
:10079800A10AA601A60AA31FDA2BA209A309A20A85
:1007A8000319A30A0130A4002408A606A701A8017A
:1007B800210820040319112CA501A50AA11BF02B5F
:1007C80001300310A00DA10DFF3E031DE52B0130E4
:1007D800A4002408A507E22B01300310A70DA80DDB
:1007E800FF3E031DF12B21082302031DFD2B2008CA
:1007F8002202031C062C2008A2022108031CA303C2
:10080800A302271401300310A10CA00CFF3E031D06
:10081800072C0130A502031DF02B26080319192CFB
:10082800A709A809A70A0319A80A2808A101A10766
:100838002708A001A007080083120313A2008B1148
:1008480083160313111483122208023E84008313B3
:1008580080080319272C2208023E84008001031413
:1008680022088400000D93002208023E84008008BC
:100878000319382C2208023E8400800183160313D2
:10088800911583122208023E840080080319452C22
:100898002208023E840080011308A1002008840079
:1008A800210880008316031391161116831222085B
:1008B800023E8400800803195A2C2208023E840054
:1008C800800183160313111583122208023E840047
:1008D80080080319682C2208023E840080018B15C9
:1008E800080083120313A601A31F812CA209A309E0
:1008F800A20A0319A30AA601A60AA11F882CA00907
:10090800A109A00A0319A10A210820040319B52C7A
:10091800A501A50AA11B9C2C01300310A00DA10D57
:10092800FF3E031D912C0130A4002408A5078E2C3E
:1009380021082302031DA22C20082202031CAA2C32
:100948002008A2022108031CA303A30201300310FC
:10095800A10CA00CFF3E031DAB2C0130A502031D0A
:100968009C2C26080319BD2CA209A309A20A031965
:10097800A30A2308A101A1072208A001A0070800D3
:1009880083120313A1008B1183160313111483120E
:100998002108023E8400831380080319CB2C210808
:1009A800023E84008001210884000008A00020077E
:1009B80093002108023E840080080319DD2C2108D9
:1009C800023E84008001210A840000089300210867
:1009D800023E840080080319EB2C2108023E8400A3
:1009E800800183160313111583122108023E840027
:1009F80080080319F82C2108023E840080018B1519
:100A0800080083120313A601A70121082004031973
:100A18003E2DA501A50AA11B1D2D01300310A00D17
:100A2800A10DFF3E031D122D0130A4002408A507C7
:100A38000F2D01300310A60DA70DFF3E031D1E2D1F
:100A480021082302031D2A2D20082202031C332D0E
:100A58002008A2022108031CA303A30226140130C4
:100A68000310A10CA00CFF3E031D342D0130A5027C
:100A7800031D1D2D2708A101A1072608A001A00715
:100A8800080005308A000408840A8207003401340B
:100A980000340A34003464340034E8340334103445
:100AA8002734543469346D3465343A342034253469
:100AB8006434253464342D34253464342534643462
:100AC8002D342534643425346434203420340034FF
:100AD80044346134743465343A342034253464340D
:100AE800253464342D3425346434253464342D3469
:100AF80025346434253464342034203400348C1D87
:100B0800882DEB01EB0A8C110B1CB42D02308500EB
:100B18000609F60004300310F60CFF3E031D8F2D66
:100B280076080F390319A52D0609F60004300310BD
:100B3800F60CFF3E031D9B2D76080F39F70077084A
:100B4800D900061AB32DD701D70A0130F600760866
:100B5800D8075808043A031DB32DD801D7010B1044
:100B68007B08FF007A088A0079088400780E8300E1
:100B7800FE0E7E0E090083120313AD000A30A0009A
:100B88000030A1002D08AA00AB012A08A2002B08FA
:100B9800A3000A128A1175240A128A1183120313F8
:100BA8002008AC00290884002C0883138000013039
:100BB800AA002A08A9070A30A0000030A1002D08C1
:100BC800AA00AB012A08A2002B08A3000A128A1166
:100BD800C323831203132008AC00290884002C08BF
:100BE80083138000080083120313290828040319BB
:100BF800262EAD01AD0AA91B0D2E01300310A80D3C
:100C0800A90DFF3E031D022E0130AC002C08AD07D4
:100C1800FF2D29082B02031D132E28082A02031C66
:100C28001B2E2808AA022908031CAB03AB020130BB
:100C38000310A90CA80CFF3E031D1C2E0130AD02A9
:100C4800031D0D2E2B08A901A9072A08A801A8072A
:100C5800080083120313A301A4012108803AA2000B
:100C68002408803A2202031D3B2E23082002031C7D
:100C7800080083120313A501A6012108803AA200E7
:100C88002608803A2202031D4B2E25082002031C49
:100C9800562E013083120313A5070318A60A003045
:100CA800A607412E013083120313A3070318A40AD1
:100CB8000030A407312E83120313B10031080A1241
:100CC8008A118D260A128A1183120313AF002F0886
:100CD800B20003142E0DC73E8400831300083206A9
:100CE800031D802E2E08AF002F07C73E8400000882
:100CF800B0003008B200842E0130AF002F08B207D0
:100D08003108AF002F08A90032080A128A11BF253E
:100D1800080083120313AC000A30A0000030A100C1
:100D28002C0884000130AC0783130008A700A80131
:100D38002708A2002808A3000A128A1175240A129B
:100D48008A11831203132008A9002108AA000A3077
:100D5800AB002B08A0002C088400831300080A129B
:100D68008A118827831203132907080083120313A3
:100D7800B00030080A128A118D260A128A118312CD
:100D88000313AF002F08B1002E08AF002F07C73E8E
:100D98008400831300083106031DDB2E03142E0D77
:100DA800C73E84000008AF002F08B100DD2E0130D7
:100DB800B1023008AF002F08A90031080A128A11C1
:100DC800BF25080083120313AC00AA01AB012B084E
:100DD800803AA90080302902031DF42E28082A022F
:100DE80003180800831203132A082C07A9002908EE
:100DF8008400831300080A128A119B270A128A1199
:100E0800013083120313AA070318AB0A0030AB079B
:100E1800EB2E83160313880183120313880106300F
:100E2800831603139F0038300A128A11AD270A125D
:100E38008A110C300A128A11AD270A128A11013060
:100E48000A128A11AD270A128A1180300A128A11F1
:100E5800AD27080083120313A30023080F39A1004C
:100E6800200884002108831380002308A10004308F
:100E78000310A10CFF3E031D3C2F2108A200200AED
:100E8800840022088000080083120313A2002208AD
:100E9800840083130008A000220A84000008A1002F
:100EA80003300310A10DFF3E031D552F0310210D24
:100EB8002004080000343B3400343B340034173439
:100EC8000134073401341F3401340C3400346334E2
:100ED800653461345F3475345D3463346734831248
:100EE8000313A6002030A5002608840025088313D4
:100EF80080000130A5002508A6072030A500260897
:100F0800840025088000080083120313A300A201AF
:100F1800231C922F2008A1002108A2070310A00D6E
:100F28000310A30CA308031D8C2F220808008312AA
:100F38000313A70027088800091489140A30A000A1
:100F48000030A1000A128A112D268312031389107A
:100F5800080083120313A7002708880009108914C2
:100F68000A30A0000030A1000A128A112D2683122F
:100F78000313891008007E088A007F088200BF27B3
:100F88000A128A118000840A04087D0603190034B5
:100F9800FF0A0319FE0AC32F8316031387150716C2
:100FA80028309300941728308312031394008B176A
:100FB8000B17831603138C15080064008001840A3C
:0A0FC8000406031900340406E22FAA
:02400E0030D0B0
:00000001FF
