:060000000A128A11122809
:10000800FE00030EF8000408F9000A08FA0083123B
:1000180003137F08FB000A128A11412D0A128A1164
:100028001528F001F101F201F301F401F501831340
:10003800543084006D300A128A112A260A128A1155
:10004800A0308400C0300A128A112A260A128A11A6
:10005800C730FD000630FE003230FF00C03084009B
:100068000A128A110C2683010A128A113B28831668
:10007800031388018901FF30860085018312031369
:1000880088018B15B0308316031381006830831202
:100098000313C7004708ED00EE01EF010A128A11A9
:1000A80093250A128A110A128A1119260A128A112C
:1000B8006D300A128A11FE230A128A11831603135D
:1000C800C8015A3083120313C7004708D800073005
:1000D8008316031348020318912883120313580840
:1000E800C7004708A0006D300A128A1155230A126A
:1000F8008A11013083120313C700470883160313BC
:10010800C807013083120313C7004708D807073010
:10011800831603134802031C7128633083120313E8
:10012800C7004708A0005C080A128A11B4250A1201
:100138008A11653083120313C7004708A0005B08C3
:100148000A128A11B4250A128A116930831203131C
:10015800C7004708A0005A080A128A11B4250A12D3
:100168008A110B3083120313C7004708AE006408D6
:10017800C800C9014808AF004908B0006308CA00B0
:10018800CB014A08B1004B08B2006608CC00CD018B
:100198004C08B3004D08B4006508CE00CF014E08E6
:1001A800B5004F08B6006A08D000D1015008B70062
:1001B8005108B8006908D200D3015208B9005308A1
:1001C800BA00A0300A128A1100220A128A1180305D
:1001D8000A128A11F6250A128A11103083120313A3
:1001E800C7004708A800A0300A128A116C250A1215
:1001F8008A11613083120313C7004708A0005E0804
:100208000A128A11B4250A128A116730831203135D
:10021800C7004708A0005F080A128A11B4250A120D
:100228008A116B3083120313C7004708A0006008C7
:100238000A128A11B4250A128A1122308312031372
:10024800C7004708AE006208C800C9014808AF00E7
:100258004908B0006108CA00CB014A08B1004B0840
:10026800B2006808CC00CD014C08B3004D08B400BA
:100278006708CE00CF014E08B5004F08B6006C08DD
:10028800D000D1015008B7005108B8006B08D2005F
:10029800D3015208B9005308BA00B0300A128A11C3
:1002A80000220A128A11C0300A128A11F6250A128F
:1002B8008A11103083120313C7004708A800B03012
:1002C8000A128A116C250A128A11643083120313E8
:1002D800A0000030A1000A128A11B5240A128A115E
:1002E80096296B300A128A11E7240A128A11822988
:1002F8006B300A128A1116250A128A118312031307
:1003080095296D300A128A11AA230A128A118312BA
:100318000313C700470883160313C7008312031388
:10032800D401D60183120313D4080319FD29103010
:1003380083120313C7004708A800A0300A128A11C5
:100348006C250A128A11393083120313C700470833
:10035800AE006208C800C9014808AF004908B000EB
:100368006108CA00CB014A08B1004B08B20068080E
:10037800CC00CD014C08B3004D08B4006708CE008E
:10038800CF014E08B5004F08B6006C08D000D10167
:100398005008B7005108B8006B08D200D3015208C2
:1003A800B9005308BA00B0300A128A1100220A12A2
:1003B8008A11C0300A128A11F6250A128A111030E1
:1003C80083120313C7004708A800B0300A128A1125
:1003D8006C250A128A11831203135608023A03196C
:1003E8007C29063A031975290C3A03198529962997
:1003F8009629013085005C2883120313C5002F302D
:10040800BB003B08BE000130AE07FF302E0784005A
:100418000A128A1100230A128A11BB003B08C6007F
:10042800C6080319D62A4608253A0319272A460872
:10043800BB00450884003B08831380000130BB00E3
:100448003B08C507072ABF010130AE07FF302E075A
:1004580084000A128A1100230A128A11C600003A7F
:100468000319D62A643A03193D2A0D3A03193D2A7D
:10047800072A3E08840083130008C100840A000884
:10048800C2000230BB003B08BE07C21F542A03301B
:10049800BB003B08BF04C109C209C10A0319C20A4B
:1004A800C601C60A4608053A03197B2A4608BB0056
:1004B8003B07013E84000A128A1100230A128A119E
:1004C800BC000A128A1100230A128A11BD003D08D5
:1004D8004202031D712A3C084102031C7B2A013099
:1004E800BB003B08C6074608053A031D5A2A3F08C1
:1004F800033903198A2A2D30BB00450884003B08BC
:10050800831380000130BB003B08C5074608BB00C9
:100518003B08C000FF30BB003B08C0074008FF3A5B
:100528000319072A0A30A8000030A9004008BB00B8
:100538003B07013E84000A128A1100230A128A111D
:10054800A0000A128A1100230A128A11A100420887
:10055800A301A3074108A201A2070A128A113F2496
:100568000A128A11831203132108AB01AB07200872
:10057800AA01AA070A128A117F240A128A11831271
:1005880003132808303EBC003C08C6004608BB00E0
:10059800450884003B08831380000130BB003B08FA
:0E05A800C5078E2A45088400831380010800D1
:1006000003308A000408840A82070034013400346D
:100610000A34003464340034E834033410342734AA
:10062000543469346D3465343A34203425346434B8
:10063000253464342D3425346434253464342D3425
:100640002534643425346434203420340034443474
:100650006134743465343A342034253464342534B8
:1006600064342D3425346434253464342D342534F5
:100670006434253464342034203400344434613408
:10068000743465343A342034253464342534643485
:100690002D3425346434253464342D3425346434C5
:1006A000253464343C342D34003483120313A20007
:1006B0008B1183160313111483122208023E840047
:1006C0008313800803195C2B2208023E84008001FA
:1006D000031422088400000D93002208023E8400C7
:1006E000800803196D2B2208023E840080018316C6
:1006F0000313911583122208023E84008008031917
:100700007A2B2208023E840080011308A1002008F1
:10071000840021088000831603139116111683129A
:100720002208023E8400800803198F2B2208023E13
:100730008400800183160313111583122208023EE0
:100740008400800803199D2B2208023E840080014A
:100750008B15080083120313A4008B118316031357
:10076000111483122408023E8400831380080319A5
:10077000B12B2408023E8400800124088400000874
:10078000A300230793002408023E84008008031975
:10079000C32B2408023E8400800106309300240805
:1007A000023E840080080319CF2B2408023E8400F7
:1007B00080016B300A128A11CE250A128A11831227
:1007C000031393002408023E840083138008031956
:1007D000E22B2408023E84008001831603131115C6
:1007E00083122408023E840080080319F02B240899
:1007F000023E840080018B15003008008312031331
:10080000A1008B1183160313111483122108023ED9
:100810008400831380080319052C2108023E8400FC
:100820008001210884000008A0002007930021080F
:10083000023E840080080319172C2108023E840020
:100840008001210A8400000893002108023E8400F0
:1008500080080319252C2108023E8400800183169C
:100860000313111583122108023E84008008031926
:10087000322C2108023E840080018B15080083126F
:100880000313A601A701210820040319782CA50150
:10089000A50AA11B572C01300310A00DA10DFF3E8E
:1008A000031D4C2C0130A4002408A507492C01305D
:1008B0000310A60DA70DFF3E031D582C210823028F
:1008C000031D642C20082202031C6D2C2008A202A8
:1008D0002108031CA303A302261401300310A10C5A
:1008E000A00CFF3E031D6E2C0130A502031D572CEA
:1008F0002708A101A1072608A001A007080083126C
:100900000313290828040319AE2CAD01AD0AA91B55
:10091000952C01300310A80DA90DFF3E031D8A2C54
:100920000130AC002C08AD07872C29082B02031DD1
:100930009B2C28082A02031CA32C2808AA02290899
:10094000031CAB03AB0201300310A90CA80CFF3E43
:10095000031DA42C0130AD02031D952C2B08A90109
:10096000A9072A08A801A807080083120313A301F6
:10097000A4012108803AA2002408803A2202031D23
:10098000C32C23082002031C080083120313A501B3
:10099000A6012108803AA2002608803A2202031DFF
:1009A000D32C25082002031CDE2C013083120313F4
:1009B000A5070318A60A0030A607C92C0130831228
:1009C0000313A3070318A40A0030A407B92C831249
:1009D0000313A1002108840083138008031D0C2D3C
:1009E0000930A0002108840020088000210A84002A
:1009F0008008031D022D0930A000210A8400200870
:100A000080000800210A84000008FF3EA000210A9F
:100A10008400200880000800210884000008FF3EB0
:100A2000A00021088400200880000800831203131E
:100A3000A1002108840083130008093A031D372D03
:100A4000210884008001210A84000008093A031D5E
:100A50002D2D210A840080010800210A840000084D
:100A6000013EA000210A840020088000080021081F
:100A700084000008013EA0002108840020088000B6
:100A800008008C1D462DEF01EF0A8C110B1C612D07
:100A9000023085000609F60004300310F60CFF3E14
:100AA000031D4D2D76080F39F7007708D600061A7A
:100AB000602DD408003003190130F6007608D40008
:100AC0000B107B08FF007A088A0079088400780EF2
:100AD0008300FE0E7E0E090083120313AA00AB01F1
:100AE000AC012C08803AA90080302902031D7A2D20
:100AF00028082B0203180800831203132B082A0767
:100B0000A90029088400831300080A128A11E42529
:100B10000A128A11013083120313AB070318AC0ABF
:100B20000030AC07712D8316031388018312031361
:100B300088010630831603139F0038300A128A1189
:100B4000F6250A128A110C300A128A11F6250A12A9
:100B50008A1101300A128A11F6250A128A11803090
:100B60000A128A11F625080083120313A300230832
:100B70000F39A10020088400210883138000230876
:100B8000A10004300310A10CFF3E031DC22D21085B
:100B9000A200200A840022088000080083120313A8
:100BA000A2002208840083130008A000220A840007
:100BB0000008A10003300310A10DFF3E031DDB2D33
:100BC0000310210D2004080083120313A700270837
:100BD0008800091489140A30A0000030A1000A120C
:100BE0008A11B5248312031389100800831203139A
:100BF000A70027088800091089140A30A0000030D7
:100C0000A1000A128A11B524831203138910080067
:100C10007E088A007F08820008260A128A11800056
:100C2000840A04087D0603190034FF0A0319FE0A2A
:100C30000C2E83160313871507162830930094177C
:100C400028308312031394008B170B17831603139A
:100C50008C15080064008001840A0406031900341E
:100C600004062B2E6334653469347534613467347B
:020C70006B34E3
:02400E0030D0B0
:00000001FF
