:060000000A128A11122809
:10000800FE00030EF0000408F1000A08F200831253
:1000180003137F08F3000A128A11392C0A128A1175
:100028001528F90183135130840065300A128A11AA
:1000380049240A128A11A0308400C0300A128A1199
:10004800492483010A128A11292883160313880177
:100058008901013086008312031388016830C200C9
:100068004208E500E601E7010A128A11CB230A12C9
:100078008A110A128A1128240A128A1165300A1272
:100088008A11C3220A128A1183120313CF01D001E5
:100098005230C2004208D1005008803AFF00803038
:1000A8007F02031D592807304F0203187E28831248
:1000B80003135108C2004208F40065300A128A117D
:1000C80032220A128A11013083120313CF07031850
:1000D800D00A0030D0070130C2004208D1075008CA
:1000E800803AFF0080307F02031D7C2807304F02D2
:1000F800031C5B285B3083120313C2004208F40020
:1001080054080A128A11EC230A128A115D308312EC
:100118000313C2004208F40053080A128A11EC23A0
:100128000A128A11613083120313C2004208F400D4
:1001380052080A128A11EC230A128A110B30831210
:100148000313C2004208A9005C08C300C4014308A5
:10015800AA004408AB005B08C500C6014508AC000E
:100168004608AD005E08C700C8014708AE00480849
:10017800AF005D08C900CA014908B0004A08B100CB
:100188006208CB00CC014B08B2004C08B3006108F0
:10019800CD00CE014D08B4004E08B500A0300A12BB
:1001A8008A1157210A128A1180300A128A111624DC
:1001B8000A128A11103083120313C2004208F80091
:1001C800A0300A128A11A4230A128A115930831204
:1001D8000313C2004208F40056080A128A11EC23DD
:1001E8000A128A115F3083120313C2004208F40016
:1001F80057080A128A11EC230A128A1163308312F3
:100208000313C2004208F40058080A128A11EC23AA
:100218000A128A11203083120313C2004208A9006F
:100228005A08C300C4014308AA004408AB0059088F
:10023800C500C6014508AC004608AD006008C70007
:10024800C8014708AE004808AF005F08C900CA01E6
:100258004908B0004A08B1006408CB00CC014B083B
:10026800B2004C08B3006308CD00CE014D08B400BD
:100278004E08B500B0300A128A1157210A128A11A5
:10028800C0300A128A1116240A128A1110308312F9
:100298000313C2004208F800B0300A128A11A423DE
:1002A8000A128A11422883120313C0002A30B600AA
:1002B8003608B9000130A907FF30290784000A125F
:1002C8008A1102230A128A11B6003608C100C10831
:1002D80003192D2A4108253A03197E294108B60039
:1002E800400884003608831380000130B6003608C1
:1002F800C0075E29BA010130A907FF302907840029
:100308000A128A1102230A128A11C100003A03193B
:100318002D2A643A031994290D3A031994295E2960
:100328003908840083130008BC00840A0008BD0053
:100338000230B6003608B907BD1FAB290330B60036
:100348003608BA04BC09BD09BC0A0319BD0AC101B3
:10035800C10A4108053A0319D2294108B6003607EF
:10036800013E84000A128A1102230A128A11B70078
:100378000A128A1102230A128A11B80038083D02AB
:10038800031DC82937083C02031CD2290130B600D6
:100398003608C1074108053A031DB1293A0803394F
:1003A8000319E1292D30B60040088400360883136C
:1003B80080000130B6003608C0074108B60036088C
:1003C800BB00FF30B6003608BB073B08FF3A0319ED
:1003D8005E290A30A3000030A4003B08B6003607A7
:1003E800013E84000A128A1102230A128A11F400BB
:1003F8000A128A1102230A128A11F5003D08F70130
:10040800F7073C08F601F6070A128A1183220A1236
:100418008A11750883120313A601A6077408A5019B
:10042800A5070A128A113C230A128A1183120313A0
:100438002308303EB7003708C1004108B60040081D
:1004480084003608831380000130B6003608C007E0
:10045800E52940088400831380010800F60083160C
:10046800031311147608023E8400831380080319CD
:10047800362A7608023E8400800103147608840038
:10048800000D8312031393007608023E840080084F
:100498000319482A7608023E840080018316031354
:1004A80091157608023E840080080319552A7608BB
:1004B800023E84008001831203131308F5007408B8
:1004C80084007508800083160313911611167608A8
:1004D800023E8400800803196B2A7608023E8400D5
:1004E80080018316031311157608023E84008008E4
:1004F8000319782A7608023E8400800108008312D6
:100508000313A001A101750874040319BC2AA201F0
:10051800A20AF51B9B2A01300310F40DF50DFF3ECE
:10052800031D902A0130F8007808A2078D2A0130AF
:100538000310A00DA10DFF3E031D9C2A750877022C
:10054800031DA82A74087602031CB12A7408F6024F
:100558007508031CF703F702201401300310F50C8B
:10056800F40CFF3E031DB22A0130A202031D9B2A90
:100578002108F501F5072008F401F4070800F50043
:100588008316031311147508023E84008313800830
:100598000319C72A7508023E840080017508840083
:1005A8000008F40074078312031393007508023ED1
:1005B800840080080319DA2A7508023E8400800145
:1005C800750A840000088312031393007508023E1D
:1005D800840080080319EA2A7508023E8400800115
:1005E8008316031311157508023E84008008031949
:1005F800F72A7508023E84008001080003308A004B
:100608000408840A82070034013400340A340034B0
:1006180064340034E83403341034273454346934EF
:100628006D3465343A3420342534643425346434E4
:100638002D3425346434253464342D34253464341D
:1006480025346434003444346134743465343A34C1
:10065800203425346434253464342D34253464340A
:10066800253464342D34253464342534643400341A
:10067800831203132408230403196B2BA801A80A67
:10068800A41B522B01300310A30DA40DFF3E031D24
:10069800472B0130A7002708A807442B2408260267
:1006A800031D582B23082502031C602B2308A502D1
:1006B8002408031CA603A60201300310A40CA30CF3
:1006C800FF3E031D612B0130A802031D522B260893
:1006D800A401A4072508A301A30708008312031394
:1006E800A001A1017508803AF6002108803A760237
:1006F800031D802B20087402031C080083120313B7
:10070800A201A3017508803AF6002308803A760210
:10071800031D902B22087402031C9B2B01308312AB
:100728000313A2070318A30A0030A307862B01307E
:1007380083120313A0070318A10A0030A107762B20
:1007480083120313A500A601A7012708803AA40075
:1007580080302402031DB22B7808260203180800F3
:100768008312031326082507A40024088400831392
:1007780000080A128A1104240A128A11013083120D
:100788000313A6070318A70A0030A707A92B831687
:100798000313880183120313880106308316031399
:1007A8009F0038300A128A1116240A128A110C3056
:1007B8000A128A1116240A128A1101300A128A11A1
:1007C80016240A128A1180300A128A111624080087
:1007D800F70077080F39F50074088400750883134B
:1007E80080007708F50004300310F50CFF3E031D68
:1007F800F82B7508F600740A840076088000080053
:10080800F7007708831203138800091489140A3043
:10081800F4000030F5000A128A11722383120313C0
:1008280089100800F700770883120313880009105D
:1008380089140A30F4000030F5000A128A11722374
:1008480083120313891008008316031387150716EC
:1008580028309300941728308312031394008B17C1
:100868000B17831603138C1508008C1D3E2CE7010B
:10087800E70A8C117308FF0072088A007108840067
:10088800700E8300FE0E7E0E090064008001840A4B
:0A08980004060319003404064A2C7C
:02400E0030D0B0
:00000001FF
