:060000000A128A11122809
:10000800FE00030EF1000408F2000A08F300831250
:1000180003137F08F4000A128A1109290A128A11A7
:100028001528F801B201B301B401B501B601B70151
:1000380083010A128A11EE2883120313A901A31F50
:100048003228A009A109A209A309A00A0319A10A33
:100058000319A20A0319A30AA901A90AA71F432879
:10006800A409A509A609A709A40A0319A50A031939
:10007800A60A0319A70A0130F5007508A906003079
:10008800AD000030AC000030AB000030AA002308FF
:1000980022042104200403199828A801A80AA31BF4
:1000A80063280130F5000310A00DA10DA20DA30DCA
:1000B800F50B57280130F5007508A80753280130BB
:1000C800F5000310AA0DAB0DAC0DAD0DF50B6528B1
:1000D80023082702031D7A2822082602031D7A28EE
:1000E80021082502031D7A2820082402031C8B28D6
:1000F8002008A4022108031C210FA5022208031CC2
:10010800220FA6022308031C230FA7022A1401307A
:100118000310A30CA20CA10CA00CFF3E031D8C28FD
:100128000130A802031D632829080319A628AA0973
:10013800AB09AC09AD09AA0A0319AB0A0319AC0A41
:100148000319AD0A2D08A3002C08A2002B08A10052
:100158002A08A000080083160313071387138312C5
:100168000313300883160313031D181503191811F8
:1001780098161813181283120313981718131812C5
:1001880098112F08F7002E08F6000630FF0003101C
:10019800F60DF70DFF0BCB287608A0007708A10015
:1001A800A201A3010030A700F430A6002430A50066
:1001B8000030A4000A128A11202083120313200899
:1001C800FF3E8316031399008B170B170C168C161A
:1001D80098100800803083120313AE002530AF005A
:1001E800B0010A128A11AF200A128A11831203136E
:1001F80037080A128A1135210A128A11013083122E
:100208000313B1003108B707FA288C1E10290A1207
:100218008A1121210A128A11831203130C1E16292E
:10022800780899007408FF0073088A00720884002F
:10023800710E8300FE0E7E0E0900831203131A0846
:10024800F0003708323E84007008831380000130C4
:10025800F0007008B70705303702031C0800B70123
:100268000800F60083160313981C08007608F500AA
:060278007508F800080003
:00000001FF
