:060000000A128A11122809
:10000800FE00030EF1000408F2000A08F300831250
:1000180003137F08F4000A128A1132290A128A117E
:100028001528F501F601F701F80183010A128A1172
:10003800DE2883120313AA01A31F2F28A009A109F0
:10004800A209A309A00A0319A10A0319A20A0319FC
:10005800A30AAA01AA0AA71F4028A409A509A60954
:10006800A709A40A0319A50A0319A60A0319A70AC6
:100078000130A8002808AA060030AE000030AD0004
:100088000030AC000030AB00230822042104200417
:1000980003199528A901A90AA31B60280130A80003
:1000A8000310A00DA10DA20DA30DA80B542801301B
:1000B800A8002808A90750280130A8000310AB0D94
:1000C800AC0DAD0DAE0DA80B622823082702031D49
:1000D800772822082602031D772821082502031DF8
:1000E800772820082402031C88282008A402210855
:1000F800031C210FA5022208031C220FA6022308B5
:10010800031C230FA7022B1401300310A30CA20C0D
:10011800A10CA00CFF3E031D89280130A902031D74
:1001280060282A080319A328AB09AC09AD09AE0950
:10013800AB0A0319AC0A0319AD0A0319AE0A2E0853
:10014800A3002D08A2002C08A1002B08A00008007D
:1001580083160313071387178312031331088316B3
:100168000313031D181503191811981618131812DC
:100178008312031398171813181698112F08A00044
:100188003008A100A201A3010030A7000330A60097
:10019800D030A5009030A4000A128A111D208312C5
:1001A80003132008FF3E8316031399008B170B17C0
:1001B8008C16080083160313860189018312031322
:1001C80086018030AF002530B000B1010A128A11D3
:1001D800AC200A128A110A128A1150210A128A11B5
:1001E8008312031389016430A0000030A1000A12B1
:1001F8008A110E210A128A11FF3083120313890013
:100208006430A0000030A1000A128A110E210A12DF
:100218008A11EF2883120313A201A30121082302E4
:10022800031D18292008220203180800A401A501AB
:1002380021082502031D22292008240203182B293E
:100248000130A4070318A50A0030A5071C290130AE
:10025800A2070318A30A0030A30712298C1E3B2902
:100268000A128A1159210A128A11F701F70A831210
:1002780003130C1E442978089900831603130C12E3
:1002880074088312FF0073088A0072088400710ED4
:100298008300FE0E7E0E0900770803190800760811
:1002A800831203138600F7010800831203131A0848
:0802B800F0007008F6000800D8
:00000001FF
