:060000000A128A11122809
:10000800FE00030EF1000408F2000A08F300831250
:1000180003137F08F4000A128A1137290A128A1179
:100028001528F601F701B20183010A128A11AB28DB
:1000380083120313A901A31F2E28A009A109A2094D
:10004800A309A00A0319A10A0319A20A0319A30AFA
:10005800A901A90AA71F3F28A409A509A609A70954
:10006800A40A0319A50A0319A60A0319A70A013045
:10007800F5007508A9060030AD000030AC0000306E
:10008800AB000030AA00230822042104200403192D
:100098009428A801A80AA31B5F280130F5000310C3
:1000A800A00DA10DA20DA30DF50B53280130F500ED
:1000B8007508A8074F280130F5000310AA0DAB0DED
:1000C800AC0DAD0DF50B612823082702031D76281A
:1000D80022082602031D762821082502031D7628FA
:1000E80020082402031C87282008A4022108031CD6
:1000F800210FA5022208031C220FA6022308031CB5
:10010800230FA7022A1401300310A30CA20CA10C80
:10011800A00CFF3E031D88280130A802031D5F289C
:1001280029080319A228AA09AB09AC09AD09AA0A2A
:100138000319AB0A0319AC0A0319AD0A2D08A30069
:100148002C08A2002B08A1002A08A000080083168A
:100158000313860188018312031386018030AE00E1
:100168002530AF00B0010A128A11E1200A128A1163
:100178008312031332080A128A1155210A128A11AE
:10018800013083120313B1003108B2076430A000B4
:100198000030A1000A128A1113210A128A11FF30B5
:1001A8008312031388006430A0000030A1000A12F3
:1001B8008A1113210A128A11BC2883160313071304
:1001C800871783120313300883160313031D1815AA
:1001D8000319181198161813181283120313981775
:1001E8001813181698112E08A0002F08A100A201B4
:1001F800A3010030A7000330A600D030A50090303E
:10020800A4000A128A111C20831203132008FF3E3F
:100218008316031399008B170B178C16080083128B
:100228000313A201A30121082302031D1D2920088D
:10023800220203180800A401A50121082502031DB4
:10024800272920082402031830290130A40703189D
:10025800A50A0030A50721290130A2070318A30A1F
:100268000030A30717298C1E40290A128A1163211E
:100278000A128A11F701F70A831203130C1E49297F
:1002880078089900831603130C1274088312FF0070
:1002980073088A0072088400710E8300FE0E7E0EB9
:1002A800090083120313A0002008F5007508F80060
:1002B800831603130C168312031388010800831294
:0C02C80003131A08F0007008F60008008C
:00000001FF
