:060000000A128A11122809
:10000800FE00030EF0000408F1000A08F200831253
:1000180003137F08F3000A128A1131280A128A1181
:100028001528F401F50183010A128A111B28831689
:10003800031308108312031308100A128A114720A9
:100048000A128A117508740403192628F401F501A7
:10005800013083120313880626280C1C3C280C1038
:100068000B308F00DC308E000130F4000030F500DA
:100078007308FF0072088A0071088400700E8300FC
:10008800FE0E7E0E090031308312031390000B30F0
:100098008F00DC308E00C0308B00013083160313D4
:0400A8008C000800C0
:00000001FF
