:040000000CEF00F011
:10000800FACF01F0FBCF02F0E9CF03F00EED00F0DC
:1000180069EF00F00600EACF04F0E1CF05F0E2CF87
:1000280006F0D9CF07F0DACF08F0F3CF09F0F4CF14
:100038000AF0F6CF0BF0F7CF0CF0F8CF0DF0F5CFB4
:100048000EF09EA009D09E900B0ECF6EDC0ECE6EE9
:10005800000E106E010E0F6E0EC0F5FF0DC0F8FFFA
:100068000CC0F7FF0BC0F6FF0AC0F4FF09C0F3FF8E
:1000780008C0DAFF07C0D9FF06C0E2FF05C0E1FFEC
:1000880004C0EAFF03C0E9FF02C0FBFF01C0FAFF9A
:100098001100000E946E82685CEC00F010500F1096
:1000A800D8B4FCD7000E106E000E0F6E821EF6D765
:1000B800B10ECD6E0B0ECF6EDC0ECE6EC00EF26E94
:1000C800010E9D6E010E9F6E1200106A0F6A0001EC
:0400D8004DEF00F0F8
:020000040020DA
:08000000FFFFFFFFFFFFFFFF00
:020000040030CA
:0E000000FF080000FF8300FF0FC00FE00F405D
:00000001FF
