:020000040000FA
:0400000007EF00F016
:0A0008007982D2ED10F041EF15F0FF
:100600000054696D653A256425642D256425642DA3
:10061000256425642025327800446174653A256498
:1006200025642D256425642D256425642533640007
:100630004C454420535441545553203A204F4E20AA
:10064000004C454420535441545553203A204F46C2
:10065000460054656D70657261747572652025641D
:100660000050726573657420303A20256400507222
:100670006573657420313A20256400507265736596
:100680007420323A202564005072657365742033FB
:100690003A2025640054696D653A202531306C6438
:1006A00000537465703A202531306C640053746FC8
:1006B00070206D6F746F72004925357520412538A3
:1006C00075004164633A25313278006C58006C69DA
:1006D000006C75006C7800004BC0D9FF4CC0DAFF8D
:1006E000DECFF6FFDDCFF7FF0800F550250AD8A4CE
:1006F0007CEF03F07EEF03F0A6EF06F04BC0D9FFCE
:100700004CC0DAFFDE2A000EDD22000E0001A36FCE
:10071000000EA26FA2C074F0A3C075F07268736877
:100720004BC0D9FF4CC0DAFFDECFF6FFDDCFF7FFBD
:100730000800F5502A0AD8A4A0EF03F0A2EF03F0B6
:10074000CBEF03F04BC0D9FF4CC0DAFFDE2A000E1E
:10075000DD224DC0D9FF4EC0DAFFDFCF4FF0020ED1
:10076000DE26DFCF50F0000EDD224FC0D9FF50C093
:10077000DAFFDECFA2F0DDCFA3F0A3BFC4EF03F01A
:10078000C2EF03F00EEF04F07480A26DA31FD8B087
:10079000A32B0EEF04F04BC0D9FF4CC0DAFFDECF25
:1007A0000EF0DDCF0FF0D9EC0DF00EC0A2F00FC0AF
:1007B000A3F0E2EF03F04BC0D9FF4CC0DAFFDE2A12
:1007C000000EDD22D00E4F6EFF0E506E4BC0D9FFD3
:1007D0004CC0DAFFDECFF6FFDDCFF7FF0800F550A3
:1007E000516E526A4F5051265050522252500AE1D7
:1007F0000A0E515CD8A0FFEF03F002EF04F0010EE7
:1008000003EF04F0000E5D6E5E6A5D505E10D8A4CA
:100810000CEF04F00EEF04F0DBEF03F04BC0D9FF58
:100820004CC0DAFFDECFF6FFDDCFF7FF0800F55052
:10083000640AD8B41EEF04F020EF04F032EF04F0A5
:100840004BC0D9FF4CC0DAFFDECFF6FFDDCFF7FF9C
:100850000800F550690AD8A430EF04F032EF04F034
:1008600072EF04F04BC0D9FF4CC0DAFFDE2A000E55
:10087000DD224DC0D9FF4EC0DAFFDFCF4FF0020EB0
:10088000DE26DFCF50F0000EDD224FC0D9FF50C072
:10089000DAFFDECF5FF0DDCF60F0000E60BEFF0E4E
:1008A000616E626E636E646E656E666E49C022F044
:1008B0004AC023F05FC024F060C025F061C026F07C
:1008C00062C027F063C028F064C029F065C02AF038
:1008D00066C02BF049EC08F022C049F023C04AF072
:1008E000C1EF06F04BC0D9FF4CC0DAFFDECF07F0F6
:1008F000DDCF08F09E0E096E060E0A6E000E0C6E1D
:10090000020E0B6EE5EC12F007500810D8B48BEF16
:1009100004F08DEF04F0A8EF04F04BC0D9FF4CC0F9
:10092000DAFFDECF07F0DDCF08F0CE0E096E060E3F
:100930000A6E000E0C6E020E0B6EE5EC12F0075004
:100940000810D8A4A6EF04F0A8EF04F0EBEF04F031
:10095000020E4BC0D9FF4CC0DAFFDE26000EDD22AE
:100960004DC0D9FF4EC0DAFFDFCF4FF0040EDE26B8
:10097000DFCF50F0000EDD224FC0D9FF50C0DAFFAC
:10098000DECF51F0DECF52F0DECF53F0DECF54F0A9
:1009900051C055F052C056F053C057F054C058F0F3
:1009A000596A58BE596859C05AF059C05BF059C0CD
:1009B0005CF055C05FF056C060F057C061F058C0A1
:1009C00062F059C063F05AC064F05BC065F05CC06F
:1009D00066F056EF04F04BC0D9FF4CC0DAFFDECF13
:1009E000F6FFDDCFF7FF0800F550750AD8A4FBEF3E
:1009F00004F0FDEF04F03EEF05F04BC0D9FF4CC012
:100A0000DAFFDE2A000EDD224DC0D9FF4EC0DAFF2C
:100A1000DFCF4FF0020EDE26DFCF50F0000EDD22DA
:100A20004FC0D9FF50C0DAFFDECF51F0DDCF52F01A
:100A300051C068F052C069F06A6A6B6A6C6A6D6A8C
:100A40006E6A6F6A49C022F04AC023F068C024F081
:100A500069C025F06AC026F06BC027F06CC028F092
:100A60006DC029F06EC02AF06FC02BF022EC0BF0A5
:100A700022C049F023C04AF0C1EF06F04BC0D9FFB5
:100A80004CC0DAFFDECF07F0DDCF08F0D10E096EE3
:100A9000060E0A6E000E0C6E020E0B6EE5EC12F0E6
:100AA00007500810D8A457EF05F059EF05F087EF6D
:100AB00005F0020E4BC0D9FF4CC0DAFFDE26000E57
:100AC000DD224DC0D9FF4EC0DAFFDFCF4FF0040E5C
:100AD000DE26DFCF50F0000EDD224FC0D9FF50C020
:100AE000DAFFDECF51F0DECF52F0DECF53F0DECFB3
:100AF00054F05150686E5250696E53506A6E5450A3
:100B00006B6E6C6A6D6A6E6A6F6A22EF05F04BC09D
:100B1000D9FF4CC0DAFFDECFF6FFDDCFF7FF0800CC
:100B2000F550780AD8B497EF05F099EF05F0ABEFE0
:100B300005F04BC0D9FF4CC0DAFFDECFF6FFDDCFAA
:100B4000F7FF0800F550580AD8A4A9EF05F0ABEF5D
:100B500005F0F9EF05F04BC0D9FF4CC0DAFFDECF4E
:100B6000F6FFDDCFF7FF0800F5CF67F04BC0D9FFE8
:100B70004CC0DAFFDE2A000EDD224DC0D9FF4EC088
:100B8000DAFFDFCF4FF0020EDE26DFCF50F0000E8F
:100B9000DD224FC0D9FF50C0DAFFDECF51F0DDCFEC
:100BA00052F051C068F052C069F06A6A6B6A6C6AB0
:100BB0006D6A6E6A6F6A49C022F04AC023F068C04D
:100BC00024F069C025F06AC026F06BC027F06CC025
:100BD00028F06DC029F06EC02AF06FC02BF067C0FE
:100BE0002CF0B8EC09F022C049F023C04AF0C1EF64
:100BF00006F04BC0D9FF4CC0DAFFDECF07F0DDCFE7
:100C000008F0D40E096E060E0A6E000E0C6E020E6F
:100C10000B6EE5EC12F007500810D8B412EF06F096
:100C200014EF06F02FEF06F04BC0D9FF4CC0DAFFEF
:100C3000DECF07F0DDCF08F0CB0E096E060E0A6E90
:100C4000000E0C6E020E0B6EE5EC12F00750081051
:100C5000D8A42DEF06F02FEF06F070EF06F04BC092
:100C6000D9FF4CC0DAFFDECF4FF0DDCF50F0010EE0
:100C70004F26000E50224FC0F6FF50C0F7FF08006D
:100C8000F5CF67F0020E4BC0D9FF4CC0DAFFDE266D
:100C9000000EDD224DC0D9FF4EC0DAFFDFCF4FF08E
:100CA000040EDE26DFCF50F0000EDD224FC0D9FF4C
:100CB00050C0DAFFDECF51F0DECF52F0DECF53F07E
:100CC000DECF54F05150686E5250696E53506A6EC8
:100CD00054506B6E6C6A6D6A6E6A6F6ADBEF05F07A
:100CE0004BC0D9FF4CC0DAFFDECFF6FFDDCFF7FFF8
:100CF0000800F550250AD8A480EF06F082EF06F030
:100D000099EF06F04BC0D9FF4CC0DAFFDE2A000E87
:100D1000DD22000E086E250E076E49C009F04AC09C
:100D20000AF029EC14F0000E4A6E010E496EC1EF74
:100D300006F04BC0D9FF4CC0DAFFDE2A000EDD22E0
:100D4000000E4A6E000E496EC1EF06F04BC0D9FF8F
:100D50004CC0DAFFDECFF6FFDDCFF7FF0800F5501D
:100D6000076E086A49C009F04AC00AF029EC14F07D
:100D70004BC0D9FF4CC0DAFFDE2A000EDD2293EF14
:100D800006F0120020EE27F00F0EDE6AE806FDE204
:100D900020EE37F0070EDE6AE806FDE2C50E076EAC
:100DA000000E086E000E0A6E000E096E000E0C6E2C
:100DB000020E0B6E65EC0FF0C70E076E000E086E8C
:100DC000000E0A6E000E096E000E0C6E020E0B6E07
:100DD00065EC0FF0000E406E000E3F6E3F500FECC2
:100DE00017F0C80E00019825216E000E9921226E81
:100DF000000E9A21236E000E9B21246E370E256E65
:100E0000000E266ED8903F34D96E4034DA6ED890FA
:100E1000D936DA362550D9262650DA2221C0DEFF0F
:100E200022C0DEFF23C0DEFF24C0DEFF000E906F75
:100E3000000E916F000E926F000E936F13EF08F08B
:100E4000000EF5EC17F0000193519211911107E19A
:100E5000D70E905DD8B02FEF07F031EF07F03EEFDF
:100E600007F0D8909035D96E9135DA6E960ED92666
:100E7000020EDA2200C1DEFF01C1DDFFEC0E156EAD
:100E8000510E166EB80E176E430E186E00C107F0A5
:100E900001C108F0096A0A6A000EFFEC0CF007C0F5
:100EA00019F008C01AF009C01BF00AC01CF0EBECE6
:100EB00011F0D8B05EEF07F060EF07F0C2EF07F077
:100EC00000C107F001C108F0096A0A6A000EFFECD0
:100ED0000CF007C015F008C016F009C017F00AC0E2
:100EE00018F0CD0E196ECC0E1A6ECC0E1B6E430E82
:100EF0001C6EEBEC11F0D8B080EF07F082EF07F03A
:100F0000C2EF07F0C50E3F24D96E000E4020DA6E06
:100F1000DF50D8A48EEF07F090EF07F0C2EF07F094
:100F2000A60E3F24D96E000E4020DA6E010EDF6E51
:100F3000C70E3F24D96E000E4020DA6E010EDF6E20
:100F4000320E216E010E226ED8903F34D96E40349D
:100F5000DA6ED890D936DA362150D9262250DA22E4
:100F600098C0DEFF99C0DEFF9AC0DEFF9BC0DEFFA7
:100F7000C50E3F24D96E000E4020DA6E010EDF6EE2
:100F80000CEF08F000C107F001C108F0096A0A6A15
:100F9000000EFFEC0CF007C015F008C016F009C0F9
:100FA00017F00AC018F0D70E196E230E1A6E380EFD
:100FB0001B6E440E1C6EEBEC11F0D8A0E2EF07F0B4
:100FC000E4EF07F00CEF08F0A60E3F24D96E000EF8
:100FD0004020DA6E010EDF6EC70E3F24D96E000E80
:100FE0004020DA6E000EDF6E320E216E010E226E90
:100FF000D8903F34D96E4034DA6ED890D936DA368C
:101000002150D9262250DA2298C0DEFF99C0DEFF97
:101010009AC0DEFF9BC0DEFF010E00019027000E8C
:10102000912392239323370E216E000E226ED890C7
:101030003F34D96E4034DA6ED890D936DA36215042
:10104000D9262250DA22DE50985DDE509959DE50C2
:101050009A59DE509B59D8A030EF08F032EF08F0D3
:1010600020EF07F03F502EEC17F03F4A402A40BED9
:1010700043EF08F0405009E1020E3F5CD8A043EF77
:1010800008F045EF08F0EEEF06F0010E0001AA6F40
:10109000120024C03CF025C03DF026C03EF027C021
:1010A0003FF028C040F029C041F02AC042F02BC0D8
:1010B00043F043BE5EEF08F061EF08F0010E62EF0F
:1010C00008F0000E3A6E3B6A3A503B10D8B46BEF12
:1010D00008F06DEF08F07DEF08F0431E421E411E40
:1010E000401E3F1E3E1E3D1E3C6C000E3D223E2219
:1010F0003F22402241224222432273BE82EF08F067
:1011000084EF08F085EF08F0749273BE92EF08F058
:10111000735006E17204D8B090EF08F092EF08F037
:1011200098EF08F0000E376E010E366E9CEF08F057
:1011300072C036F073C037F0A2C038F0A3C039F0E7
:101140003A503B10D8A4A7EF08F0A9EF08F0B0EF91
:1011500008F074A4AEEF08F0B0EF08F0B3EF08F0B9
:101160003806D8A03906000E456E1F0E446E000EDC
:101170000101746F38EF09F04406D8A04506550EFA
:101180004424D96E010E4520DA6E3CC007F03DC004
:1011900008F03EC009F03FC00AF040C00BF041C06B
:1011A0000CF042C00DF043C00EF00A0E0F6E000EA0
:1011B000106E000E116E000E126E000E136E000EF9
:1011C000146E000E156E000E166E20EC10F007C0A7
:1011D0002CF008C02DF009C02EF00AC02FF00BC073
:1011E00030F00CC031F00DC032F00EC033F02CC026
:1011F00019F02EC01AF0EFEC16F01950300FDF6E18
:101200003606D8A037063806D8A039063CC007F005
:101210003DC008F03EC009F03FC00AF040C00BF0EE
:1012200041C00CF042C00DF043C00EF00A0E0F6E2C
:10123000000E106E000E116E000E126E000E136E78
:10124000000E146E000E156E000E166EA1EC0EF060
:1012500007C03CF008C03DF009C03EF00AC03FF0B6
:101260000BC040F00CC041F00DC042F00EC043F086
:1012700045BE43EF09F0455008E14404D8A043EFD0
:1012800009F045EF09F075EF09F03C503D103E10B4
:101290003F104010411042104310D8A452EF09F003
:1012A00054EF09F0BCEF08F037BE61EF09F037509A
:1012B00006E13604D8B05FEF09F061EF09F0BCEF4A
:1012C00008F039BE6CEF09F0395008E13804D8A0B5
:1012D0006CEF09F06EEF09F075EF09F074B273EF7F
:1012E00009F075EF09F0BCEF08F03A503B10D8A4B4
:1012F0007CEF09F07EEF09F085EF09F074A483EF2D
:1013000009F085EF09F0A3EF09F04406D8A04506DF
:101310003A503B10D8A48FEF09F091EF09F097EF06
:1013200009F0000E356E2B0E346E9BEF09F0000EA7
:10133000356E2D0E346E550E4424D96E010E4520A7
:10134000DA6E34C0DFFF22C017F023C018F0550E4C
:101350004424196E010E45201A6E38C01BF039C0A6
:101360001CF08EEC14F017C022F018C023F012000D
:1013700073BEBDEF09F0BFEF09F0C0EF09F0749242
:1013800073BECDEF09F0735006E17204D8B0CBEF15
:1013900009F0CDEF09F0D3EF09F0000E3A6E010E1F
:1013A000396ED7EF09F072C039F073C03AF0A2C0BD
:1013B0003BF0A3C03CF074A8E0EF09F0E2EF09F0C5
:1013C000E6EF09F0FE0E3B26FF0E3C2224C03DF066
:1013D00025C03EF026C03FF027C040F028C041F0B5
:1013E00029C042F02AC043F02BC044F0000E466EE4
:1013F0001F0E456E000E0101746FB2EF0AF0450634
:10140000D8A046060F0E3D14476E486A48BE12EF3C
:101410000AF0485009E10A0E475CD8A012EF0AF022
:1014200014EF0AF01CEF0AF0570E4724476E000E27
:101430004820486E22EF0AF0300E4724476E000E17
:101440004820486EBF0E2D6EFF0E2E6E2C502F6E54
:10145000306A2D502F262E50302230500AE11A0EBD
:101460002F5CD8A036EF0AF039EF0AF0010E3AEF00
:101470000AF0000E356E366A35503610D8B443EF98
:101480000AF045EF0AF075EF0AF09F0E2D6EFF0E81
:101490002E6E200E47102F6E000E4810306E2D500D
:1014A0002F262E50302230500AE11A0E2F5CD8A081
:1014B0005CEF0AF05FEF0AF0010E60EF0AF0000E39
:1014C000376E386A37503810D8B469EF0AF06BEFCE
:1014D0000AF075EF0AF047C00DF048C00EF028EC96
:1014E00016F00DC047F00EC048F0550E4524D96ED9
:1014F000010E4620DA6E47C0DFFF3906D8A03A0653
:101500003B06D8A03C063DC02DF03EC02EF03FC0AB
:101510002FF040C030F041C031F042C032F043C043
:1015200033F044C034F0050E9FEF0AF0D890343207
:1015300033323232313230322F322E322D32E82EE7
:1015400096EF0AF02DC03DF02EC03EF02FC03FF0C8
:1015500030C040F031C041F032C042F033C043F0FF
:1015600034C044F046BEBEEF0AF0465009E1020E18
:10157000455CD8A0BEEF0AF0C0EF0AF0F0EF0AF029
:101580003D503E103F104010411042104310441097
:10159000D8A4CDEF0AF0CFEF0AF0FFEF09F03ABE82
:1015A000DCEF0AF03A5006E13904D8B0DAEF0AF07D
:1015B000DCEF0AF0FFEF09F03CBEE7EF0AF03C5029
:1015C00008E13B04D8A0E7EF0AF0E9EF0AF0F0EFFA
:1015D0000AF074B2EEEF0AF0F0EF0AF0FFEF09F054
:1015E00074A8F5EF0AF0F7EF0AF00DEF0BF04506DF
:1015F000D8A04606550E4524D96E010E4620DA6E57
:101600002CC0DFFF4506D8A04606550E4524D96EEE
:10161000010E4620DA6E300EDF6E22C017F023C0B6
:1016200018F0550E4524196E010E46201A6E3BC067
:101630001BF03CC01CF08EEC14F017C022F018C058
:1016400023F0120073BE27EF0BF029EF0BF02AEF07
:101650000BF0749273BE37EF0BF0735006E1720417
:10166000D8B035EF0BF037EF0BF03DEF0BF0000E7D
:10167000356E010E346E41EF0BF072C034F073C062
:1016800035F0A2C036F0A3C037F024C038F025C032
:1016900039F026C03AF027C03BF028C03CF029C002
:1016A0003DF02AC03EF02BC03FF0000E416E1F0EF1
:1016B000406E000E0101746FD4EF0BF04006D8A00D
:1016C0004106550E4024D96E010E4120DA6E38C015
:1016D00007F039C008F03AC009F03BC00AF03CC03E
:1016E0000BF03DC00CF03EC00DF03FC00EF00A0EF6
:1016F0000F6E000E106E000E116E000E126E000EB8
:10170000136E000E146E000E156E000E166EC1ECF8
:1017100013F007C02CF008C02DF009C02EF00AC04D
:101720002FF00BC030F00CC031F00DC032F00EC005
:1017300033F02C50300FDF6E3406D8A03506360655
:10174000D8A0370638C007F039C008F03AC009F011
:101750003BC00AF03CC00BF03DC00CF03EC00DF0A9
:101760003FC00EF00A0E0F6E000E106E000E116ECE
:10177000000E126E000E136E000E146E000E156E2B
:10178000000E166E6DEC12F007C038F008C039F08C
:1017900009C03AF00AC03BF00BC03CF00CC03DF071
:1017A0000DC03EF00EC03FF040504110D8B4DBEF0A
:1017B0000BF0DDEF0BF00DEF0CF0385039103A1054
:1017C0003B103C103D103E103F10D8A4EAEF0BF048
:1017D000ECEF0BF05EEF0BF035BEF9EF0BF0355090
:1017E00006E13404D8B0F7EF0BF0F9EF0BF05EEF41
:1017F0000BF037BE04EF0CF0375008E13604D8A0E8
:1018000004EF0CF006EF0CF00DEF0CF074B20BEFE0
:101810000CF00DEF0CF05EEF0BF022C017F023C0C0
:1018200018F0550E4024196E010E41201A6E36C074
:101830001BF037C01CF08EEC14F017C022F018C05B
:1018400023F0120021EEA5F011EEDBF00F0EDBCF3E
:10185000E3FFE806FCE2000E946E000E956E000EAB
:10186000966E080E936E030E926E000E836E000E3F
:10187000816E030E826E680E0001B66F000EB76FA8
:10188000000EB86F83EC15F00A0E206E000E216E6C
:10189000000E226E000E236E69EC11F01DEC18F0A4
:1018A000800E3CEC18F0DB0E096E010E0A6E100E75
:1018B0000B6EA9EC16F0000E966EC80E000198256E
:1018C0000101EB6F000E000199210101EC6F000E88
:1018D00000019A210101ED6F000E00019B21010121
:1018E000EE6F76EF0CF0000EF5EC17F00101EB5106
:1018F0000001985D0101EC51000199590101ED5180
:1019000000019A590101EE5100019B59D8B08BEFAB
:101910000CF08DEF0CF095EF0CF0AA51D8B493EFCA
:101920000CF095EF0CF073EF0CF0AA51D8A49BEFDC
:101930000CF09DEF0CF0A3EF0CF0C2EC06F054ECB1
:1019400013F05DEF0CF0000E0101EF6F800E3CEC28
:1019500018F0DB0E0001D06F010ED16FB80ED26F00
:10196000060ED36FEFC1D4F0D56B90C0D6F091C006
:10197000D7F092C0D8F093C0D9F057EC16F0DB0E38
:10198000096E010E0A6E100E0B6EA9EC16F0000E19
:10199000F5EC17F0C00E3CEC18F0DB0E0001D06F38
:1019A000010ED16FC20ED26F060ED36F00C1D4F0FC
:1019B00001C1D5F057EC16F0DB0E096E010E0A6E70
:1019C000100E0B6EA9EC16F01A0E0001ED6F5E0EF4
:1019D000EC6F6E0EE82EFED7EC2FFCD7ED2FFAD76A
:1019E00000F00101EF2BD50EEF65F9EF0CF0FBEFE6
:1019F0000CF0A6EF0CF05DEF0CF007EF00F00F6EAF
:101A00000F50D8B406EF0DF008EF0DF02AEF0DF0EF
:101A10000ABE0FEF0DF00DEF0DF02AEF0DF007C02D
:101A20000BF008C00CF009C00DF00AC00EF00B1E40
:101A30000C1E0D1E0E1E0B2A000E0C220D220E2255
:101A40000BC011F00CC012F00DC013F00EC014F05A
:101A500032EF0DF007C011F008C012F009C013F00A
:101A60000AC014F00750081009100A10D8A43BEF60
:101A70000DF03DEF0DF047EF0DF0000E076E000E7C
:101A8000086E000E096E000E0A6ED8EF0DF0960E6D
:101A9000106E51EF0DF0102AD8901432133212321A
:101AA0001132000E11140B6E000E12140C6E000E8B
:101AB00013140D6EFE0E14140E6E0B500C100D1040
:101AC0000E10D8A466EF0DF068EF0DF04BEF0DF09F
:101AD00076EF0DF0102A010E1126000E12221322AD
:101AE0001422D8901432133212321132000E111413
:101AF0000B6E000E12140C6E000E13140D6EFF0E02
:101B000014140E6E0B500C100D100E10D8A48BEF89
:101B10000DF08DEF0DF06AEF0DF095EF0DF0100662
:101B2000D890113612361336143613BE9AEF0DF0D4
:101B30009CEF0DF0A4EF0DF0020E1060A2EF0DF07F
:101B4000A4EF0DF08FEF0DF010B0A9EF0DF0ABEF9B
:101B50000DF0ACEF0DF0139ED890103210C00BF0CA
:101B60000C6A0D6A0E6A0BC00EF00D6A0C6A0B6AE5
:101B70000B5011120C5012120D5013120E50141261
:101B80000F50D8B4C6EF0DF0C8EF0DF0D0EF0DF048
:101B90000ABECFEF0DF0CDEF0DF0D0EF0DF0148EAB
:101BA00011C007F012C008F013C009F014C00AF009
:101BB0001200000E1C6E000E1B6E000E156E000E45
:101BC000146EE5EF0DF00E4A0F2A010E1A6E0EC0CC
:101BD000F6FF0FC0F7FF0800F550200AD8B4F3EF66
:101BE0000DF0F5EF0DF012EF0EF0F70E106EFF0E88
:101BF000116E0EC0F6FF0FC0F7FF0800F550126E11
:101C0000136A1050122611501322135009E1050EC9
:101C1000125CD8A00EEF0EF010EF0EF012EF0EF0E7
:101C2000000E1A6E1AC016F0176A16501710D8A4B4
:101C30001CEF0EF01EEF0EF0E3EF0DF028EF0EF0AC
:101C4000000E156E010E146E0E4A0F2A5DEF0EF097
:101C50000EC0F6FF0FC0F7FF0800F550106E116AB6
:101C60001150000AD8B437EF0EF05DEF0EF01050AF
:101C70002B0AD8B424EF0EF0060AD8B420EF0EF0E9
:101C80005DEF0EF01BC007F01CC008F0000E0A6EDE
:101C90000A0E096E0AEC18F00EC0F6FF0FC0F7FF2F
:101CA0000800F550075E000E085A300E07241B6E20
:101CB000000E08201C6E24EF0EF0D00E106EFF0EEA
:101CC000116E0EC0F6FF0FC0F7FF0800F550126E40
:101CD000136A105012261150132213500AE10A0EF3
:101CE000125CD8A076EF0EF079EF0EF0010E7AEFCD
:101CF0000EF0000E186E196A18501910D8A483EF50
:101D00000EF085EF0EF042EF0EF014501510D8A42F
:101D10008CEF0EF08EEF0EF09CEF0EF01BC010F06B
:101D20001CC011F0101E111E104A112A10C00EF016
:101D300011C00FF0A0EF0EF01BC00EF01CC00FF092
:101D40001200000E186E16BEAAEF0EF0A8EF0EF0ED
:101D5000BCEF0EF0161E151E141E131E121E111EB1
:101D6000101E0F6C000E10221122122213221422B8
:101D700015221622010E186E0EBEC3EF0EF0C1EF33
:101D80000EF0D5EF0EF00E1E0D1E0C1E0B1E0A1EC1
:101D9000091E081E076C000E082209220A220B22C7
:101DA0000C220D220E22010E181A20EE19F0070E39
:101DB000DE6AE806FDE20F50101011101210131029
:101DC000141015101610D8B4E8EF0EF0EAEF0EF06C
:101DD0003CEF0FF0010E176EF8EF0EF0D8900F36B3
:101DE0001036113612361336143615361636172AB3
:101DF00016AEFDEF0EF0FFEF0EF0EEEF0EF0D89006
:101E000019361A361B361C361D361E361F3620363E
:101E10000F50075C105008581150095812500A58BA
:101E200013500B5814500C5815500D5816500E588E
:101E3000D8A01DEF0FF01FEF0FF030EF0FF00F5095
:101E4000075E1050085A1150095A12500A5A13507E
:101E50000B5A14500C5A15500D5A16500E5A198020
:101E6000D890163215321432133212321132103227
:101E70000F32172EFFEF0EF01850D8B442EF0FF0CC
:101E800044EF0FF054EF0FF0201E1F1E1E1E1D1EEC
:101E90001C1E1B1E1A1E196C000E1A221B221C224D
:101EA0001D221E221F22202219C007F01AC008F08E
:101EB0001BC009F01CC00AF01DC00BF01EC00CF0C6
:101EC0001FC00DF020C00EF0120007C011F008C0B6
:101ED00012F00B500C10D8A470EF0FF072EF0FF04F
:101EE00074EF0FF01FEF10F011C0D9FF12C0DAFF2E
:101EF00009C0DFFF0B5011240D6E0C5012200E6E26
:101F0000FF0E0D24D96EFF0E0E20DA6E09C0DFFF22
:101F10000C5007E1030E0B5CD8B091EF0FF093EF7C
:101F20000FF095EF0FF01FEF10F020EE01F01150C1
:101F3000D9261250DA2209C0DFFF20EE02F011503C
:101F4000D9261250DA2209C0DFFF0B5011240D6E82
:101F50000C5012200E6EFE0E0D24D96EFF0E0E20B8
:101F6000DA6E09C0DFFF0B5011240D6E0C501220E9
:101F70000E6EFD0E0D24D96EFF0E0E20DA6E09C016
:101F8000DFFF0C5007E1070E0B5CD8B0CAEF0FF073
:101F9000CCEF0FF0CEEF0FF01FEF10F020EE03F0BC
:101FA0001150D9261250DA2209C0DFFF0B5011243C
:101FB0000D6E0C5012200E6EFC0E0D24D96EFF0E0D
:101FC0000E20DA6E09C0DFFF0C5007E1090E0B5C32
:101FD000D8B0EDEF0FF0EFEF0FF0F1EF0FF01FEFD4
:101FE00010F011C00DF012C00EF00D1E0E1E0D4AA5
:101FF0000E2A030E0D140F6E106A0F50112610508A
:1020000012220F500B5E10500C5AFC0E0B16FF0ED6
:102010000C1616EF10F011C0D9FF12C0DAFF09C07C
:10202000DFFF0B06D8A00C06114A122A0B500C1029
:10203000D8A41DEF10F01FEF10F00BEF10F01200FE
:10204000000E186E0EBE29EF10F027EF10F03BEFD8
:1020500010F00E1E0D1E0C1E0B1E0A1E091E081E61
:10206000076C000E082209220A220B220C220D22E4
:102070000E22010E186E16BE42EF10F040EF10F067
:1020800052EF10F0161E151E141E131E121E111EE6
:10209000101E0F6C000E1022112212221322142285
:1020A000152216220F5010101110121013101410B8
:1020B00015101610D8B45FEF10F061EF10F0A9EF13
:1020C00010F0010E176E6FEF10F0D8900F3610362B
:1020D000113612361336143615361636172A16AE42
:1020E00074EF10F076EF10F065EF10F00F50075C12
:1020F000105008581150095812500A5813500B58D4
:1021000014500C5815500D5816500E58D8A08BEF7F
:1021100010F08DEF10F09DEF10F00F50075E105093
:10212000085A1150095A12500A5A13500B5A145097
:102130000C5A15500D5A16500E5AD89016321532A8
:10214000143213321232113210320F32172E76EF50
:1021500010F01850D8B4AFEF10F0B1EF10F0C1EF9D
:1021600010F00E1E0D1E0C1E0B1E0A1E091E081E50
:10217000076C000E082209220A220B220C220D22D3
:102180000E2207C007F008C008F009C009F00AC015
:102190000AF00BC00BF00CC00CF00DC00DF00EC01F
:1021A0000EF012000600D9CF03F0DACF04F0F3CF1F
:1021B00005F0F4CF06F09EA6E0EF10F0E2EF10F08D
:1021C000E6EF10F09E96010E0001B86F9EAAEBEFAD
:1021D00010F0EDEF10F0FCEF10F09E9A7750020D2A
:1021E000000EF324D96E020EF420DA6EAECFDFFFBC
:1021F000010E0001B26F772A010E9EA8000E9DA865
:10220000000EE8A006EF11F008EF11F00CEF11F04E
:102210009E989D9878C0ADFFF2A011EF11F013EFDA
:1022200011F02DEF11F0010E0001AD6F8150FF0A8A
:10223000016E013A0F0E01160F0E0116D8B423EFEE
:1022400011F025EF11F02CEF11F08150FF0A016E13
:1022500001380F0B0F0BAC6FF2909EA032EF11F014
:1022600034EF11F040EF11F09E90010E000198271D
:10227000000E99239A239B239DC0CFFF9CC0CEFFC5
:102280009EAC45EF11F047EF11F05FEF11F09E9C0F
:10229000C350C4CF01F0026A01C002F0016A01120A
:1022A000000E02120001B451020D000EF324D96E8B
:1022B000010EF420DA6E01C0DEFF02C0DDFF06C0B1
:1022C000F4FF05C0F3FF04C0DAFF03C0D9FF799221
:1022D000110023502210211009E1650E205CD8A0C6
:1022E00074EF11F076EF11F09AEF11F020C013F0B7
:1022F00021C014F022C015F023C016F0640E176E32
:10230000000E186E000E196E000E1A6EEFEC14F02F
:1023100013C051F114C052F115C053F116C054F15D
:10232000640E206E000E216E000E226E000E236ED3
:10233000A3EF11F0010E0101516F000E526F000E5C
:10234000536F000E546FB10ECD6E20C007F021C048
:1023500008F022C009F023C00AF0000E0B6E2D0E0B
:102360000C6E310E0D6E010E0E6EC2EC15F007C034
:1023700013F008C014F009C015F00AC016F0000EE2
:10238000176E7D0E186E000E196E000E1A6EEFECB1
:1023900014F01350000800019C6F000E14549D6F40
:1023A000010E15549E6F000E16549F6F9F5108E149
:1023B0009E05D8A0DEEF11F0E0EF11F0E2EF11F092
:1023C0009DC0CFFF9CC0CEFFC00EF26E010E9D6E71
:1023D000010E9F6E1200000E15141D6E000E1614D5
:1023E0001E6E800E17141F6E7F0E1814206E1D5067
:1023F0001E101F102010D8A400EF12F002EF12F0F0
:102400000AEF12F0000E156E000E166E000E176E1B
:10241000000E186E000E19141D6E000E1A141E6E9A
:10242000800E1B141F6E7F0E1C14206E1D501E107C
:102430001F102010D8A41FEF12F021EF12F029EF87
:1024400012F0000E196E000E1A6E000E1B6E000EBA
:102450001C6E18AE2EEF12F030EF12F039EF12F0C2
:10246000156C161ED8B0162A171ED8B0172A800E63
:1024700018561CAE3EEF12F040EF12F049EF12F08A
:10248000196C1A1ED8B01A2A1B1ED8B01B2A800E2F
:102490001C56000E151A000E161A000E171A800E82
:1024A000181A000E191A000E1A1A000E1B1A800EA6
:1024B0001C1A1950155C1A5016581B5017581C50EE
:1024C0001858D8B066EF12F068EF12F06BEF12F008
:1024D000D8906CEF12F0D880120020EE17F0070EA3
:1024E000DE6AE806FDE20F501010111012101310F2
:1024F000141015101610D8B480EF12F082EF12F0FD
:10250000D4EF12F0010E1F6E90EF12F0D8900F363C
:1025100010361136123613361436153616361F2A73
:1025200016AE95EF12F097EF12F086EF12F0D890FA
:102530001736183619361A361B361C361D361E3617
:102540000F50075C105008581150095812500A5883
:1025500013500B5814500C5815500D5816500E5857
:10256000D8A0B5EF12F0B7EF12F0C8EF12F00F508D
:10257000075E1050085A1150095A12500A5A135047
:102580000B5A14500C5A15500D5A16500E5A1780EB
:10259000D8901632153214321332123211321032F0
:1025A0000F321F2E97EF12F017C007F018C008F077
:1025B00019C009F01AC00AF01BC00BF01CC00CF0C7
:1025C0001DC00DF01EC00EF0120007C00EF008C0B6
:1025D0000FF009C010F00AC011F00B06D8A00C06CD
:1025E0000B2806E10C28D8A4F8EF12F0FAEF12F04D
:1025F00007EF13F0000E086E000E076E53EF13F096
:102600000E4A0F2A104A112A0B06D8A00C060EC03B
:10261000F6FF0FC0F7FF0800F5500009D8B413EF1C
:1026200013F015EF13F041EF13F010C0F6FF11C0D7
:10263000F7FF0800F5500009D8B421EF13F023EF9D
:1026400013F041EF13F00B500C10D8B42AEF13F035
:102650002CEF13F041EF13F00EC0F6FF0FC0F7FFA1
:102660000800F5CF0DF010C0F6FF11C0F7FF08000D
:10267000F5500D18D8B43FEF13F041EF13F000EF11
:1026800013F00EC0F6FF0FC0F7FF0800F5CF0DF0F6
:1026900010C0F6FF11C0F7FF0800F5500D5C076E83
:1026A000086AD8A008061200000E0A6E000E096E15
:1026B000A60E0924D96E000E0A20DA6EDF50D8A4C7
:1026C00064EF13F066EF13F084EF13F06EEF13F086
:1026D000818E84EF13F0818C84EF13F009C007F032
:1026E0000AC008F00850000AD8B479EF13F084EF5C
:1026F00013F00750000AD8B468EF13F0010AD8B4F9
:102700006BEF13F084EF13F0C70E0924D96E000E9F
:102710000A20DA6EDF50D8A490EF13F092EF13F096
:10272000B0EF13F09AEF13F0818AB0EF13F08188C5
:10273000B0EF13F009C007F00AC008F00850000A13
:10274000D8B4A5EF13F0B0EF13F00750000AD8B4D7
:1027500094EF13F0010AD8B497EF13F0B0EF13F031
:10276000094A0A2A0ABEBEEF13F00A5009E1020E16
:10277000095CD8A0BEEF13F0C0EF13F058EF13F0D0
:1027800012000F5010101110121013101410151009
:102790001610D8B4CEEF13F0D0EF13F018EF14F0FA
:1027A000010E176EDEEF13F0D8900F36103611368B
:1027B00012361336143615361636172A16AEE3EFD0
:1027C00013F0E5EF13F0D4EF13F00F50075C105047
:1027D00008581150095812500A5813500B581450E9
:1027E0000C5815500D5816500E58D8A0FAEF13F08B
:1027F000FCEF13F00CEF14F00F50075E1050085A66
:102800001150095A12500A5A13500B5A14500C5AAC
:1028100015500D5A16500E5AD890163215321432E1
:1028200013321232113210320F32172EE5EF13F03D
:1028300007C007F008C008F009C009F00AC00AF094
:102840000BC00BF00CC00CF00DC00DF00EC00EF064
:10285000120009500A10D8B430EF14F032EF14F01F
:102860003BEF14F009500A10D8A439EF14F03BEFF5
:1028700014F040EF14F007504AEC18F08DEF14F00C
:1028800020EE04F00950D9260A50DA22DE50DE107C
:10289000D8B44DEF14F04FEF14F06AEF14F020EEBF
:1028A00004F00950D9260A50DA2210EE02F009503D
:1028B000E1260A50E222DE50E65CE650800A0F6E06
:1028C000DE50800A0F58D8B068EF14F06AEF14F0A9
:1028D0008DEF14F020EE02F00950D9260A50DA22CA
:1028E000DECF0BF0DDCF0CF009C0D9FF0AC0DAFF54
:1028F000DECF0DF0DDCF0EF00B500D24D96E0C5055
:102900000E20DA6E07C0DFFF20EE02F00950D92654
:102910000A50DA22DE2A000EDD22120074A093EFA4
:1029200014F095EF14F09FEF14F019C010F01AC0D6
:1029300011F017C012F018C013F0CDEC16F01CBE49
:10294000A4EF14F0A6EF14F0ACEF14F01BC020F0CD
:102950001CC021F0B0EF14F0000E216E000E206EAE
:10296000000E1F6E000E1E6EC2EF14F0000E086EF9
:10297000200E076E17C009F018C00AF029EC14F0F9
:102980001E4A1F2A20501E5C1F50800A1D6E2150B7
:10299000800A1D58D8A0CFEF14F0D1EF14F0B6EF95
:1029A00014F074B0D6EF14F0D8EF14F0E2EF14F096
:1029B00019C010F01AC011F017C012F018C013F0AF
:1029C000CDEC16F019C007F01AC008F0DAEC17F0D9
:1029D00020500724176E21500820186E1200000E98
:1029E0001B6E000E1C6E000E1D6E000E1E6E17502C
:1029F000181019101A10D8B400EF15F002EF15F0E6
:102A000038EF15F0010E1F6E0CEF15F0D890173649
:102A1000183619361A361F2A1AAE11EF15F013EFB1
:102A200015F006EF15F0D8901B361C361D361E36F5
:102A30001750135C18501458195015581A5016583E
:102A4000D8A025EF15F027EF15F030EF15F017504F
:102A5000135E1850145A1950155A1A50165A1B80E2
:102A6000D8901A321932183217321F2E13EF15F080
:102A70001BC013F01CC014F01DC015F01EC016F0D2
:102A800012007E0EF66E2F0EF76E000EF86E01EE3F
:102A9000A5F010EE36F00900F5CFEEFFE550E1505D
:102AA000FAE1960EF66E300EF76E000EF86E090023
:102AB000F5CFEEF002EE96F011EEACF0EE6AE550D6
:102AC000E150FCE1E250FAE102EE00F0960EEE6A0F
:102AD000E806FDE101EE00F0A50EEE6AE806FDE174
:102AE00000EE80F04A0EEE6AE806FDE100EE72F0BC
:102AF000070EEE6AE806FDE179907992000EF86E15
:102B0000000122EF0CF0000E956E000E836E060E93
:102B1000C16E380E3CEC18F0030E0A6E8A0E096E78
:102B2000560EE82EFED7092EFCD70A2EFAD70C0E29
:102B30003CEC18F0030E0A6E8A0E096E560EE82E53
:102B4000FED7092EFCD70A2EFAD7010E3CEC18F05E
:102B5000030E0A6E8A0E096E560EE82EFED7092E57
:102B6000FCD70A2EFAD7800E3CEC18F0030E0A6E42
:102B70008A0E096E560EE82EFED7092EFCD70A2EB5
:102B8000FAD71200000E0F6E000E106E000E116EBE
:102B9000000E126E07A0CFEF15F0D1EF15F0D9EFB0
:102BA00015F00B500F260C5010220D5011220E5014
:102BB0001222D8900B360C360D360E36D8900A32CB
:102BC0000932083207320750081009100A10D8A439
:102BD000ECEF15F0EEEF15F0CAEF15F00FC007F0AF
:102BE00010C008F011C009F012C00AF01200CCC0E9
:102BF00070F0CDC071F0000E0001A16F000EA06F4B
:102C000015EF16F0CAC049F0CBC04AF0700E4B6EFB
:102C1000000E4C6ECEC04DF0CFC04EF06CEC03F009
:102C200049500001A0274A50A12370C0F6FF71C08F
:102C3000F7FF0800F5500009D8A421EF16F023EFA4
:102C400016F002EF16F0A0C0CAF0A1C0CBF012003F
:102C50009F0E0F6EFF0E106E0DC011F00EC012F021
:102C60000F5011261050122212500AE11A0E115C58
:102C7000D8A03DEF16F040EF16F0010E41EF16F030
:102C8000000E136E146A13501410D8B44AEF16F0E5
:102C90004CEF16F052EF16F05F0E0D140D6E0E6A2B
:102CA00056EF16F00DC00DF00EC00EF01200D40E4F
:102CB0000001E46F000EE56FD0C0E6F0D1C0E7F090
:102CC000000EE96F000EE86F000EEB6F000EEA6F6A
:102CD000E60ECA6F000ECB6FD2C0CCF0D3C0CDF0E1
:102CE000E40ECE6F000ECF6FF7EC15F00001E85147
:102CF000D025D96EE951D121DA6E000EDF6E1200B7
:102D0000010E0D6E200E07180810D8B48AEF16F0C9
:102D10008CEF16F0A5EF16F0F70E096EFF0E0A6E97
:102D200007C00BF008C00CF009500B260A500C220B
:102D30000C5009E1050E0B5CD8A0A1EF16F0A3EF33
:102D400016F0A5EF16F0000E0D6E0DC007F0086A24
:102D50001200000E106E000E0F6EBAEF16F00F503C
:102D60000924D96E10500A20DA6EDF502EEC18F0CC
:102D70000F4A102A0B500C6E0D6A0C500F5C10504D
:102D8000800A0E6E0D50800A0E58D8A0CAEF16F0B9
:102D9000CCEF16F0AFEF16F01200000E166E000E1C
:102DA000156EDEEF16F014C007F0086A12C009F0C5
:102DB00013C00AF029EC14F0154A162A15501024F5
:102DC000D96E16501120DA6EDF50146E1450D8A44C
:102DD000ECEF16F0EEEF16F0D3EF16F012001ABE7D
:102DE000FCEF16F01A5006E11904D8B0FAEF16F00D
:102DF000FCEF16F00AEF17F019C01BF01AC01CF018
:102E00001B1E1C1E1B4A1C2A1BC019F01CC01AF0DA
:102E10000EEF17F019C019F01AC01AF01200096E5F
:102E200018EF17F082902DEF17F082922DEF17F028
:102E30000950076E086A0850000AD8B422EF17F04C
:102E40002DEF17F00750000AD8B412EF17F0010A5F
:102E5000D8B415EF17F02DEF17F01200096E37EF09
:102E600017F082804CEF17F082824CEF17F0095078
:102E7000076E086A0850000AD8B441EF17F04CEF0B
:102E800017F00750000AD8B431EF17F0010AD8B490
:102E900034EF17F04CEF17F012009F0E096EFF0E83
:102EA0000A6E200E07100B6E000E08100C6E0950F3
:102EB0000B260A500C220C500AE11A0E0B5CD8A00B
:102EC00064EF17F067EF17F0010E68EF17F0000ED0
:102ED000076E086A12009F0E096EFF0E0A6E07C089
:102EE0000BF008C00CF009500B260A500C220C50B5
:102EF0000AE11A0E0B5CD8A080EF17F083EF17F0F1
:102F0000010E84EF17F0000E076E086A1200BF0E64
:102F1000096EFF0E0A6E07C00BF008C00CF00950D6
:102F20000B260A500C220C500AE11A0E0B5CD8A09A
:102F30009CEF17F09FEF17F0010EA0EF17F0000EB7
:102F4000076E086A1200D00E096EFF0E0A6E07C0E7
:102F50000BF008C00CF009500B260A500C220C5044
:102F60000AE10A0E0B5CD8A0B8EF17F0BBEF17F020
:102F7000010EBCEF17F0000E076E086A1200496ED2
:102F8000697469616C697A696E672E2E2E20BF00A4
:102F9000C100C300C900BD00BB00B900C300C1002F
:102FA000BF00BD00BB00B9000017003B003B011F84
:102FB000010C006307C009F008C00AF0E2EF17F047
:102FC000074A082A07C0D9FF08C0DAFFDF50D8A493
:102FD000ECEF17F0EEEF17F0E0EF17F00950075C99
:102FE000076E0A500858086E1200086E08C0B4F048
:102FF000C2B2FDEF17F0FFEF17F0F8EF17F008C0BF
:1030000007F007460746C2500718C30B0718C26EE1
:10301000C282120007500902F3CF0BF0F4CF0CF07C
:1030200007500A02F3500C2608500902F3500C26F0
:103030000BC007F00CC008F01200C150F00B0D09D6
:10304000C16EC08E9E9C9D8CC280C050C70B100963
:10305000C06EC050F80B0209C06E1200086E08C0A6
:1030600083FF818281840D0E076EFC0EE82EFED751
:10307000072EFCD781941200086E08C083FF81924E
:1030800081840D0E076EFC0EE82EFED7072EFCD7AE
:0730900081941200120001FF
:020000040020DA
:08000000FFFFFFFFFFFFFFFF00
:020000040030CA
:0E000000FF021F1EFF8081FF0FC00FE00F40A8
:00000001FF
